:1000000000500020852F000001CA011001CA011014
:1000100001CA011001CA011001CA011001CA011070
:1000200001CA011001CA011001CA011001CA011060
:0C00300001CA011001CA01103FCA0110F2
:100100003C0000000000000000000000340100007E
:1001100000000000000000000100000000000000DE
:1001200000000000000000000000000001000000CE
:0C013000000000000800000000000000BB
:10013C003400000000000000000000006801000016
:10014C0000000000000000000100000000000000A2
:10015C00010000000000000000000000080000008A
:04016C00000000008F
:1001700030000000000000000000000098010000B6
:10018000040000000000000001000000FFFFFFFF6E
:10019000FF00000001000000080000000000000057
:1001A0002C0000000000000000000000C40100005E
:1001B000040000000000000001000000FFFFFFFF3E
:0C01C000FFFFFFFF08000000000000002F
:1001CC0034050000E401000099A1011095A701106D
:1001DC00A5C2011009B2011045B80110A9BC01104B
:0801EC0089BC01103000000085
:1001F40028000000000000000000000014020000BD
:100204000000000000000000FFFFFFFF00000000EE
:080214000800000000000000DA
:10021C00300500003002000069C201106DC10110F0
:10022C001FC2011095BA011009BC0110E9BB0110E5
:04023C002E00000090
:10024000300500005402000075C20110A9B601106B
:100250009DBF011049B60110B9BA011029BC0110A7
:040260002F0000006B
:1002640024000000000000000000000080020000E4
:100274000000000000000000000000000800000072
:040284000000000076
:10028800240000000000000000000000A40200009C
:10029800000000000000000000000000080000004E
:0402A8000000000052
:1002AC00240000000000000000000000C802000054
:1002BC000000000001000000000000000800000029
:0402CC00000000002E
:1002D0000000000068020020040000000000000090
:1002E000000000002000000070010000300000004D
:1002F0001C02000088020020040000000000000032
:10030000000000000C000000300400001800000095
:1003100040020000900200200400000000000000E5
:100320000000000024000000480400001800000045
:1003300000000000D00200200400000000000000C7
:100340000000000010000000A00100002C000000D0
:10035000CC010000D80200200400000000000000D2
:1003600000000000200000006402000024000000E3
:10037000FFFFFFFFF8020020040000000000000063
:100380000000000028000000880200002400000097
:10039000FFFFFFFF2003002004000000000000001A
:1003A00000000000580000003C0100003400000084
:1003B000FFFFFFFF280300200400000000000000F2
:1003C00000000000100000006004000018000000A1
:1003D000FFFFFFFF300300200400000000000000CA
:1003E000000000001C000000AC020000240000001F
:1003F000FFFFFFFF380300200400000000000000A2
:100400000000000038000000F40100002800000097
:10041000FFFFFFFFA0030020040000000000000019
:100420000000000054000000000100003C0000003B
:100430001800000000000000000000004004000060
:080440000800000000000000AC
:100448001800000000000000000000005804000030
:08045800080000000000000094
:100460001800000000000000000000007004000000
:0804700008000000000000007C
:0804780001000000E42F000068
:040484000100000073
:0404880000000E0062
:04048C0000000F005D
:040490003200000036
:040494000100000063
:0404980070020020CE
:04049C00000200005A
:0404A0000000000058
:0404A40001CA011078
:0404A8000000000050
:0404AC00000000004C
:0404B0000800000040
:0404B4000000230021
:0404B8009802002086
:0404BC00010000003B
:0404C000E002002036
:0404C400080000002C
:0404C8000000000030
:0404CC00000000002C
:0404D0000000000028
:0404D4000000000024
:0404D8000000000020
:0404DC00010000001B
:0404E00040030020B5
:0404E400060000000E
:0404E800010000000F
:0404EC00A803002041
:0404F0000000000008
:0404F4000000000004
:0404F80000020000FE
:0404FC0000000000FC
:020502002900CE
:020504000100F4
:020506002500CE
:020508002E00C3
:02050A002F00C0
:02050C003000BD
:02050E000100EA
:0105100001E9
:0805140004000000B02F0000FC
:08051C000000000000000000D7
:0405240000000100D2
:0405280000000300CC
:04052C0087C401106F
:04053000380500008A
:040534003805000086
:0405380000000000BF
:04053C00900000002B
:040540009000000027
:0405440000000000B3
:04054800E0020020AD
:04054C008D280000F6
:040550002000000087
:040554009C2F0000D8
:04055800B82D0000BA
:04055C000DC30110BA
:04056000D1190000AD
:04056400D3190000A7
:0405680099C801101D
:04056C009BC8011017
:040570000200000085
:040574009A160000D3
:04057800F02C000063
:04057C00082D000046
:04058000D82C000073
:0205840008006D
:0205860009006A
:02058800010070
:02058A0000006F
:01058C00016D
:040590000000000067
:040594000000000063
:04059800000000005F
:04059C00000000005B
:0405A0001B19000023
:0405A4003B190000FF
:0405A8003F180000F8
:0405AC0065190000CD
:0405B00087180000A8
:0405B4005D180000CE
:0405B800B91800006E
:0405BC00971900008B
:0405C000052800000A
:0405C4007529000095
:0405C800792900008D
:0405CC000800000023
:0405D0002400000003
:0405D400180000000B
:0405D80028000000F7
:0405DC0020000000FB
:0405E0003C000000DB
:0405E4000C00000007
:0405E80034000000DB
:1005EC00DFF800F0D5C00110DFF800F0F5C0011005
:1005FC00DFF800F085C10110DFF800F079B50110CB
:10060C00DFF800F0C1C20110DFF800F0E3BF011009
:10061C00DFF800F049C10110DFF800F019C2011039
:10062C00DFF800F0E1B50110DFF800F049BA011075
:10063C00DFF800F029AF011020B10823242200219B
:10064C00FFF7D6BF704780B50120009009234FF407
:10065C0000720021DFF8640600F0C3FB01BDDFF877
:10066C00600680687047DFF85816401890F8ED0067
:10067C0070470022022904D1012806D140F2EE2253
:10068C0003E0012808BF4FF47A7210467047DFF878
:10069C00300690F8E61021B1D0F80C01010018BF1B
:1006AC00004770472DE9F041DFF8148608F1E105A9
:1006BC008AB0A879002861D10120A871DFF80466FE
:1006CC00DFF80476307B68717068C8F80C0101A8FB
:1006DC00FFF7B2FF00200690ADF81400079001ABB5
:1006EC0000220FF2754108F10C00FFF785FF01ABFA
:1006FC0000220FF2215108F13000FFF77DFF01AB12
:10070C0000220FF2594108F15400FFF775FFB16850
:10071C0001208847DFF8B40500787868C0F381546D
:10072C00707B20B1032C02D10120287003E0032C34
:10073C0018BF022C16D1022000F08DF8032CDFF824
:10074C0090150CBF4FF47A7042F210700968B0FB30
:10075C00F1F108F15400FFF753FF08F15400FFF7D3
:10076C0053FF05E0012C03D100F022FAFFF76BFFD9
:10077C00386840075CBF002000F06DF80AB0BDE897
:10078C00F08110B50446FFF743FFDFF8341562180B
:10079C0092F8E8305B1E82F8E830DBB223B98A6845
:1007AC000123A3409A438A6066E02DE9F041054697
:1007BC00FFF72EFF8046DFF80815681890F8ED203B
:1007CC00521E80F8ED20D2B2002A3FD10FF23C50DD
:1007DC00DFF8004500EB85052E786F88300615D5BF
:1007EC002168096A384688472168896A38468847EB
:1007FC002168096B38468847DFF8DC140120086053
:10080C00DFF8D80400688007FAD512E0700606D528
:10081C0001EB87010020D1F80011884709E021681D
:10082C008969384688472168496B384688470228C9
:10083C00F9D106F03F003F2818BFFFF7B6FF6878E4
:10084C0000F03F003F2818BFFFF7AFFF4046BDE860
:10085C00F041FFF7E1BE10B50446FFF7D9FEDFF813
:10086C0060148A680123A3401A438A60611891F8C6
:10087C00E820521C81F8E820BDE81040FFF7CCBE00
:10088C00F8B50646FFF7C4FE0446DFF83454701979
:10089C0090F8ED104A1C002980F8ED2039D10FF2A8
:1008AC006C4000EB8607387800F03F003F2818BFFB
:1008BC00FFF7E6FF787800F03F003F2818BFFFF7FE
:1008CC00DFFF7E883878DFF80C7401060ED53968A6
:1008DC00C969304688473968496A3046884739685B
:1008EC00C96A3046884700F019F812E0400606D570
:1008FC0005EB86010120D1F80011884709E0396821
:10090C004969304688473968496B30468847012821
:10091C00F9D12046BDE8F240FFF77EBEDFF8B813F0
:10092C0001200860DFF8B40300688007FAD570472F
:10093C002DE9F04F002483B04FF0000A0128D04677
:10094C0018BF012664D1DFF87893D9F8DC000128B0
:10095C005DD10220C9F8DC00FFF746FE00900120B3
:10096C0000F031F9060054D1FFF73AFEDFF87413AA
:10097C0001900C60012000F079FA012804D10020CC
:10098C0000F076F94FF0010ADFF85C13DFF8500342
:10099C000C6000681120FFF766FE08B14FF00108EB
:1009AC001020FFF760FE08B148F002080F20FFF797
:1009BC005AFE08B148F004080B20FFF754FEDFF88C
:1009CC00146320B13168096B4FF4806088470A20AA
:1009DC00FFF749FE20B13168096B4FF481608847FD
:1009EC00DFF8F412DFF80473DFF804B301200860B9
:1009FC0048F02000316889698847DFF8F812012037
:100A0C00086099F80800C00707D5012416E00426F1
:100A1C0073E00120C9F8DC006CE0584600F09CFA49
:100A2C000546042DF9D0012D04D1326A52680321F8
:100A3C00584690473868800880003860002000F0E5
:100A4C0097FAA74800683068806B804754B9012D2D
:100A5C0004D1326A5268012158469047386840F0F8
:100A6C00030038600120A04908604046316849699C
:100A7C0088470B20FFF7F7FD20B13168C96A4FF4A6
:100A8C00806088470A20FFF7EEFD20B13168C96A03
:100A9C004FF48160884790490120086000209549F7
:100AAC0008600320C9F8DC003168496B4046884770
:100ABC000128F9D1042000F086F88A490120086049
:100ACC00874800688C4800688006FBD5BAF1000F97
:100ADC001CBF012000F0CCF800F096FB082000F0C1
:100AEC0072F806460120C9F8DC000198FFF798FD62
:100AFC0000F00EFB0098FFF797FD3046BDE8FE8F27
:100B0C0030B5002401288BB004D021D303281DD08C
:100B1C0018D31DE001A8FFF78FFD694D77490694A6
:100B2C00ADF81440079401AB012205F17800FFF7F2
:100B3C0063FD00940023724A2C2105F19C00FFF701
:100B4C0077FD05E000F080FB044601E000F022FC9C
:100B5C0020460BB030BD00007047000010B582B0CD
:100B6C00042000F083F9022818BF032807D100F0F5
:100B7C001FF8FFF768FDBDE81640022001E661484A
:100B8C00534900684E4CC0F3815003280CBF4FF4FE
:100B9C007A7041F288300968B0FBF1F104F154002D
:100BAC00FFF72EFD04F15400BDE81640FFF72CBDF5
:100BBC00032000901C234FF0405200213F4800F0CE
:100BCC0010B90020704770B504463D4E304600F019
:100BDC0054FD002598B9304600F055FD0646B06826
:100BEC00204207D03269F368002120469847054619
:100BFC00012D05D0304600F048FD0600EFD1284607
:100C0C0070BD414901280CBF40F2FF700020086004
:100C1C000020704770B5FFF7FBFC294E294D0446A8
:100C2C0096F8E00028B100F038F968B1002086F899
:100C3C00E0000220AD68A84706461020FFF7C3FF6E
:100C4C008EB10320A8470EE0214909683220B0FB81
:100C5C00F1F101B9012106F13000FFF7D1FC06F1E9
:100C6C003000FFF7D1FC2046BDE87040FFF7D4BC44
:100C7C0038B501281ED100F0F9F801281CD000F07D
:100C8C0002F90F4C1249012084F8E0003220096867
:100C9C00B0FBF1F505B9012504F1300000F06FFD52
:100CAC00294604F13000FFF7ABFC04F13000FFF7EC
:100CBC00ABFC01E000F013F9002032BD00A00C40A9
:100CCC0018040020C02F0000B03F0050E60D00209B
:100CDC00DC2F0000B80100102820086028200840F4
:100CEC002C2009400C4009400002224324220840D9
:100CFC00004003408001044314100940DD1400003F
:100D0C00AD120000B43F0050000004608F3F0000A3
:100D1C008F3F01008F3F02008F3F0300903F000187
:100D2C008F3F0101903F0002903F00038F3F010471
:100D3C008F3F00058F1208048F3F00048F3F000681
:100D4C00513F00007F3F01003F3F04003F3F020046
:100D5C003F3F01007F3F020070B504460D4616462A
:100D6C0000F04EFA401E8041C00F1A490A68002A52
:100D7C00FCD0012E02D0022E02D003E0257002E03E
:100D8C00258000E0256001220A6000281CBFBDE818
:100D9C00704000F039BA70BD38B504460D4600F00D
:100DAC002FFA401E8041C00F0A490A68002AFCD065
:100DBC00012D02D0022D02D003E0247802E0248819
:100DCC0000E0246801220A6008B100F01DFA2046F8
:100DDC0032BD000000800C400B461146042218184E
:100DEC00BAE710B500EB4100102B144600F500706B
:100DFC0002D3103B001D240C0299994041EA044196
:100E0C00BDE810400422A7E738B51D460818102D80
:100E1C00144602D3103D801C240C0221FFF7BCFFAA
:100E2C00204080B2E84032BD70B50446E00782B085
:100E3C000D46434E05D5A8B200900023012200F0C8
:100E4C0011F8A00705D5A8B200900123022200F0EA
:100E5C0009F8600705D5ADB2009502230C2200F00D
:100E6C0001F873BD00213046FFF7BBBF01460429D2
:100E7C0007BF1D234FF0C0421C234FF08052304857
:100E8C003421FFF7C1BF80B501210320FFF7CCFF50
:100E9C0000F008FE2B49886001BD80B50120FFF7EA
:100EAC00E5FF012819D00023012234212448FFF743
:100EBC00ABFF98B100F026F800F0F4FD21498B68E7
:100ECC000A68C860A2EB9202C01A1F4B5843000C70
:100EDC000860904238BF10460860012002BD10B572
:100EEC0000210320FFF7A0FF0120FFF7BFFF08B18F
:100EFC0000F008F8134C00F0D5FD606000F0E8FD40
:100F0C00206110BD1148006800F0F6BD10B5104905
:100F1C000A6810490968140424161B384443E41069
:100F2C0004EB2244120600FB00F3121609065A4386
:100F3C005843091604EBA222484302EBA04010BD13
:100F4C0000A00C40980D002040420F0080000010C3
:100F5C0090130050A4100050006801074CBF0420EF
:100F6C0000F00300704701001628A8BF2038704716
:100F7C002DE9F84F06469348934C0068934D800733
:100F8C0004D50820A87192482060BFE000F0A0FDB5
:100F9C0080469048006800900027001700F1010976
:100FAC000098800208D4C8F13E00C0100928A8BFE0
:100FBC0008208145B8BF814687480068C0F30460AB
:100FCC00FFF7D2FF824685480068C0F30440FFF764
:100FDC00CBFF09EB0A011629A8BF152104DA6FF023
:100FEC0009029142B8BF114601F01F027C4B42F43A
:100FFC00F8521A807B4A126812F0030F18BF0127AF
:10100C00520748BF47F002070EB147F0040795F9A5
:10101C000720A8EB0202052A02DAAA7997425DD0D2
:10102C00A8F10F0C0026BCF1000FB64607F0010228
:10103C0007F00403DFF8B09123D40CEB0C1C4FEA3F
:10104C002C2EBEF1080F28BF4FF0070E7646072E48
:10105C0028BF062609EB860A59F82660DAF804A0A0
:10106C00AAEB060A0AF0FF0613B1CAF3072B5E447B
:10107C005FEA877B44BFCAF3074B5E440AB106EBB9
:10108C001A6659F82E9009F0FF0A13B1C9F3072319
:10109C009A44BB0744BFC9F307439A440AB10AEB0D
:1010AC00196A401AACEB0E220099AF717243803270
:1010BC000128B8BF0120342301F0FF0158430AEB8B
:1010CC0012224843B0FBF2F0B0F5803F28BF4FF638
:1010DC00FF7008F30708A88085F80780434800686C
:1010EC00A988286000201F2904D21F21A98004E0B0
:1010FC004908401CB1F5007FFAD20F39090940EAC2
:10110C00C1003B490843206000206060BDE8F18FBE
:10111C0010B53848006884B21CB300F0D9FC2B49D8
:10112C0091F90720904205DA6FF07F029042B8BF28
:10113C001046C8718888844201D28C8010BD2B4A1D
:10114C0012680B68D21A921C202A28BF1F22231A5D
:10115C005208D3401818B0F5803F28BF4FF6FF70E7
:10116C00888010BD2448026802B9704710B5234B23
:10117C00996801F04060B0F1406F21D011480468CB
:10118C00A4071DD45C68A4071AD404681B68C3F3B5
:10119C0003531C331B0114F0050F06D09A420FD2D7
:1011AC006FF005012140016010BD934208D20A0185
:1011BC0058BF44F00104490158BF44F004040460D2
:1011CC0010BD00000000094030100940CC0D00207B
:1011DC00FDFDA400B43F0050B81200503C1100506B
:1011EC006E620840242208409C13005008200940DD
:1011FC0000E7A4803410094028500940AC3F00504F
:10120C00EFF3108072B67047EFF3108062B6704740
:10121C000138FDD170477047DFF800F099C8011014
:10122C0010B50C18FFF7ECFF401E8041C00FDFF823
:10123C00F0130A68002AFCD0246801220A6008B165
:10124C00FFF7E2FF204610BD38B5DFF8D843DFF8D2
:10125C00D8132078897B002508430AD0FFF7D8F9EA
:10126C00A178002906BF0121A1700125FFF7D4F94F
:10127C000DB1002032BD0220FFF7EDFA0E20FFF772
:10128C00FFFADFF8A803016809B1012032BDDFF8CD
:10129C00A023402111600121C1610020607032BD8A
:1012AC0070B5DFF88C0382B0002101604821C16069
:1012BC00DFF8800300F1D804A17A002968D0012955
:1012CC00DFF8742329D110684BF2F5214843050A45
:1012DC00DFF868030068C0F38140012806D100F0F4
:1012EC00F7FBFFF713FE684305EB9055607B10B1DD
:1012FC000020607305E0D2480068000215EB102056
:10130C004508D0480560290C416001218160C64820
:10131C00807B00283AD0052039E0022909D11568D4
:10132C00284600F0FDF8A5F2FF5003282ED3082024
:10133C002DE003292CD1116800F1B805A1F5C0618D
:10134C002868E961002848BF4042002948BF49424B
:10135C008842A8BF002018DA6868BB4E80B20090A3
:10136C0008234FF47F4230213046FFF73AFDA8683E
:10137C0000F072F904213046FFF733FDA86900F044
:10138C0071F93046FFF72DFD012020700B202073E2
:10139C00BDE873402DE9F041A64CDFF8AC82AB4FB1
:1013AC00AB4EA34804F1E10582B0E9784A1E0B2A42
:1013BC0000F28080DFE802F0062233465B33465BA6
:1013CC003346636EA34909680968202088470F20BB
:1013DC00F860072341F61D5038614FF4C0720220AB
:1013EC00009000F070F807234FF4C07200214046C3
:1013FC00FFF70AFD01203060022044E00120F86173
:10140C00287800281DBF0020306103200620E870DA
:10141C0003203860002070607068800734D4E8784E
:10142C00032804D1022000F04BF8042007E0002030
:10143C0000F046F8E87806280CBF07200A20E87070
:10144C0001201AE0042903D12021B961012105E012
:10145C000122BA610A290CBF032102216970002103
:10146C0039600821C16001600120386026E005293F
:10147C000CBF06200920E8700020706004E00020FA
:10148C00306070600C20E87004F17800BDE8F64123
:10149C00FFF7BAB8002101600120644908600E20F2
:1014AC00FFF783F90220FFF76CF90120E8700020A8
:1014BC00A87003E0BDE8F341FFF7AEBEBDE8F381D1
:1014CC0000900523602200214046FFF78ABC0000F3
:1014DC0080B558495E4891F8E410891E0A291AD83B
:1014EC00DFE801F0060A0E190A0E190A0E1912008D
:1014FC0001688907FCD510E041688907FCD40CE031
:10150C0041688907FCD508E001688907FCD441686B
:10151C008907FCD401E0FFF77FFEBDE8014039E705
:10152C00F8B50746484C30212046FFF779FE414E6E
:10153C0006F1B805C0F30720686004212046FFF7C8
:10154C006FFEC0F38440A86020212046FFF768FEA0
:10155C00C0F38120A861B7F5C060286002D186F87D
:10156C00D800F1BD296996F8D8202AB96A68A9680B
:10157C00EA60E861AA696A61E86900284CBF6FF00B
:10158C000102022200EB40001018421000EB927096
:10159C0001EBA0006968E960012810DA6A69032A86
:1015AC0004D1153001281DDA01201BE00B30012875
:1015BC00B8BF0120491E48BF0021E96007E01F2881
:1015CC0012DB6A692AB915381F28A8BF1E2003210F
:1015DC0009E00B381F28A8BF1E20491C4029A8BFB2
:1015EC003F21E9600021696128610823E86880B225
:1015FC0000904FF47F42302100F03CF80120009025
:10160C0011234FF4003200F034F8286900F024F86C
:10161C0000F02FF8686900F025F800F02BF8F1BD08
:10162C0000800C40F9040020C02F000004800C4006
:10163C002C500C401804002008400C40B43F0050C3
:10164C00102009403C600C4000A00C4000400C40B5
:10165C0034600C40A001001080B2009012234FF4B3
:10166C00F802704780B200900A234FF440622021A8
:10167C00704704212046FFF7B4BB006800280CBF5C
:10168C000120002070470068704700687047000018
:10169C00DFF800F021B30110DFF800F095C0011065
:1016AC00DFF800F00DA80110DFF800F0BDBE01104E
:1016BC00DFF800F085C80110DFF800F079C80110E0
:1016CC00FEE76BE038B5FFF7FCFFDFF8F05004469F
:1016DC00A8680021FFF7E0FF6969081AA96981422F
:1016EC0038BF002084F3118832BD2DE9F041FFF79B
:1016FC00E8FFDFF8C8500446A8680121FFF7CCFFCB
:10170C000121A9830021E9836E6929682A68871B56
:10171C00801A711A884204D20020A88384F311889D
:10172C002BE084F31188002406E0A6193146012031
:10173C00FFF7B6FF3F1B0446A742F6D2FFF7C1FFE7
:10174C008046E88B012804D131460020FFF7A8FF22
:10175C000446A96914F1010F08BF084603D0E01B29
:10176C00814238BF08468119FFF79EFF012028846B
:10177C000020A8832E6088F31188BDE8F081002139
:10178C008182DFF83410C0684969884204D1DFF8DF
:10179C0054000068FEF738BF70477047DFF84810F8
:1017AC000968EFF3118081F311887047F6E7DFF8D1
:1017BC003C00806870470000780100207801002010
:1017CC00616280F311882046704738B504460D4697
:1017DC00FFF7ECFF616A2943FFF7F2FFBDE83240E7
:1017EC00FFF756BFE02F0000D82F0000C8010020E3
:1017FC0000F09AB9FFF7D2BFDFF89C11C20744BFC3
:10180C0001220A60820744BF4FF480720A604007CD
:10181C0044BF4FF4803008607047DFF88021C30765
:10182C0048BF1160830748BF5160400748BF9160B3
:10183C00704710B504460020D4E90A2347F690619E
:10184C0000F01EFA0123994228BF4FF0FF3010BD63
:10185C0010B50C4600F026F9011D201AB0F1004F0E
:10186C0005D8081BB0F1004F38BF8C4200D20C4693
:10187C002146BDE810400120CFE72DE9F04180461C
:10188C000A46D8E90A01D8E90C45A0FB026701FB1E
:10189C000277A6196F41340C002244EA07414046F6
:1018AC00FFF7D6FFC8E90E67BDE8F081F8B506462C
:1018BC00FFF7A0FF0446DFF8E850DFF8E8700120DE
:1018CC00E861FFF799FFF96A096A142088473069C3
:1018DC00B0F5802F34BF0421010C0120FFF79DFFD0
:1018EC003A681268232100209047DFF8BC100120D1
:1018FC000860DFF8BC00016821F4E02141F480317C
:10190C0001600120286084F31188F1BD000000F013
:10191C00D3B810B5DFF89400446800F006F860699D
:10192C00A169BDE8104008470000012064E7F8B544
:10193C0004460D4600F0C0F8D4E90A6732463B462F
:10194C0000F09EF93DB1A6FB002306FB013307FB1B
:10195C000033C4E90C23F2BD10B5DFF84400DFF806
:10196C005440002101600121C16121602068FFF712
:10197C00DCFFDFF84C100968096A142088472068DE
:10198C0010BD00004FF0FF3002BD80B500F094F8A0
:10199C00000C40EA014002BD042009401820094017
:1019AC00000024438401001080022443E401002041
:1019BC00002009402C200940DFF8D400C088704773
:1019CC00B0010010FEE7704780B5DFF8C800016871
:1019DC0021B1DFF8C400006800F0CAF9FFF7D2BFEC
:1019EC0010B50446DFF8AC00006880B134B101E0FA
:1019FC0000F018F814F8010B0100F9D1DFF89C0085
:101A0C00008800281CBFBDE8104000F024B810BDB1
:101A1C002248008828B11F480068002818BF00F031
:101A2C001AB8704738B504461A48056895B1FFF7DF
:101A3C003FFE19490A684B68D4544A68521CAA42A2
:101A4C004A6003D100224A6001220A81BDE832407B
:101A5C00FFF732BE31BD70B5FFF72AFE04461048C1
:101A6C000D4D06682889012806D10A49686809685D
:101A7C002A68091A1044B04769682868B0470020E2
:101A8C00686028812046BDE87040FFF715BE000055
:101A9C00F0010020E82F000030050020720F00003C
:101AAC00EC2F000009480168426803689942FAD19A
:101ABC00100C40EA0140704710B5044A1368506896
:101ACC001468A3421946F9D110BD00000820094042
:101ADC000748084A81681278006852B2A0F5407035
:101AEC00C9035043C913A1EB20108030001270477A
:101AFC00285009400C13005070B50446FFF780FBCA
:101B0C00451EAD41ED0F074E30680028FCD0A047B4
:101B1C0001203060002D1CBFBDE87040FFF774BB86
:101B2C0070BD000000800C4010B54048046814F1F2
:101B3C00010F08BF002400F087F93D490020086020
:101B4C0001203C4908603C49086000F04DFB3B48D3
:101B5C00006820B13A480068204600F01CF839496A
:101B6C00394A00200860394801686FF31B41114362
:101B7C00016037480168C1F30131012906D10168C0
:101B8C00344A114041F4003202600160324800686E
:101B9C000028FBD110BD70B505463048012101600D
:101BAC002F4909680029FBD02E4C2F4AC0212160F7
:101BBC0053682E499B075DBF13681B0C43F0F00361
:101BCC0072230B70002101639668304600F046F9D1
:101BDC003146284600F075F92548816D89B240F2EE
:101BEC000F22914213D201680068C1F30361C0F364
:101BFC00034001B1491E072805D006280EBF072057
:101C0C00801C00F00F0041EA00101A4908703046A1
:101C1C0000F0C6F918490968C968022088474020B5
:101C2C00206001201549086070BD00001C13005095
:101C3C00840460425C600C40082204438001284309
:101C4C00000120438C21084000003901482003404A
:101C5C0004000940FFFFFCFC0C0068421010094016
:101C6C009402224300600C40AC3F00505662084086
:101C7C00BC12005002600840A001001094046042A5
:101C8C001B4213D1094236D12AB18446B0FBF2F083
:101C9C0002FB10C2704700F017BBFCD300220023DC
:101CAC0070470B000200002100207047904271EB3E
:101CBC00030CF6D370B5B1FA81F4B3FA83F52C1B8F
:101CCC00A340C4F1200532FA05F63343A2405FF07D
:101CDC000046E64002E05B085FEA3202841A71EBD0
:101CEC00030524BF204629467641F4D302000B009D
:101CFC003000002170BD012ACFD970B5140C20D052
:101D0C00B1FA81F4B2FA82F5C4F120046419B4F189
:101D1C002006D6D3B2405FF00044F440002502E028
:101D2C0052085FEA3303C61A71EB020E24BF304629
:101D3C00714664416D41F3D302000B002000290071
:101D4C0070BD0C46B1FBF2F102FB11452D0445EAC6
:101D5C001045B5FBF2F402FB145580B240EA054580
:101D6C00B5FBF2F002FB105240EA044070BD0000DB
:101D7C00002200F0ABBA000030480068000C00F004
:101D8C000700052828BF4FF0FF3070472C490A6820
:101D9C00C2F30F324BF69A139A424FF0FF3006D132
:101DAC000868000F0B280CBF0420002070474BF66E
:101DBC00BE118A4201D1012070474BF641318A4253
:101DCC0001D1032070474BF620318A4208BF022014
:101DDC00704700001A48F8B50068050F19480068EC
:101DEC0000F0FF06802E28BF0026FFF7CFFF042847
:101DFC004FF0FF3406F10A071DD8DFE800F003129C
:101E0C001A1A1B00012D12D0032D06D0072D06D057
:101E1C00082D08BF06F116040DE014240BE0152460
:101E2C0009E025B1022D08BF06F1140403E00A24D1
:101E3C0001E005B93C4660B2F2BD000094120050BE
:101E4C0018130050A010005080B5FFF79FFF20B969
:101E5C00FFF7C0FF162800DB01BDFEE7DFF8E81333
:101E6C000968C1F304611629A8BF203901EB207160
:101E7C00491C1629A8BF152104DA6FF009029142FA
:101E8C00B8BF114601F01F01DFF8C02341F4F8512F
:101E9C001180DFF8BC13096889074FBF40F0406020
:101EAC000021DFF8B0231160DFF8AC13C0F3C0627F
:101EBC0082F00102C0F380600A6080F0010088604B
:101ECC00704770B5054682B0084600F0EEF8024641
:101EDC00DFF88843182100F060F800F012F980B2A6
:101EEC000090002340F2FF322C212046FEF779FFB0
:101EFC00DFF86C63F068C0F30D021C2100F04DF8A4
:101F0C00706800F0FC32142100F047F83068DFF8FC
:101F1C005413DFF8546301EA0002102100F03DF87D
:101F2C00284600F0F8F802460C2100F036F8284656
:101F3C0000F01CF9400040F020003072284600F000
:101F4C001EF940F010003072284600F021F90246CC
:101F5C00282100F022F8284600F0FFF8400040F05D
:101F6C006000F072284600F02DF9C00040F08000AF
:101F7C003070284600F02FF98000BC4940F47C40BA
:101F8C000880284600F011F90246082100F005F8F7
:101F9C00B7494FF48000086073BD2046FEF71CBFA4
:101FAC00F8B5810C01F003010129B24CB04D02D0FF
:101FBC0002292AD026E0216A8A0323D44FF48042D6
:101FCC002A606FF08F06AC4AD2F8023033404E0ACA
:101FDC0006F080063343C1F303363343C2F80230B4
:101FEC00C1F30326D2F801301B0946EA0313C2F8E9
:101FFC0001306FF0E7061368334001F0E701194335
:10200C00116002E04FF0004129609C4E9C4AB1687F
:10201C0009075CBF4021A9624FF400712964800D4F
:10202C00216AC90C01F0030141F0300110F00300EA
:10203C00117003D0022826D008D326E001210420F9
:10204C00FEF7F2FE8F4800F0F0F822E00120FEF7D8
:10205C000DFF074639460420FEF7E6FE0420FEF786
:10206C0005FFB842FAD1366826F07F4000F0DDF863
:10207C00854B1B681B684FF060220721300E984778
:10208C004FF480602860032100E002210420FEF759
:10209C00CBFE20687D4900F03F00087047F6180021
:1020AC007B4908807B480068F1BD7B490968C1F316
:1020BC0083628303C1F38F2120D4000400164FF6F2
:1020CC00FF7307E0490804D11946520804BF0122E6
:1020DC000121401C0028F5D401280FDB490041F0F8
:1020EC000101B1F5803F21BF0121520042F00102F4
:1020FC00102A24BF0F221946401EEDE741EA024088
:10210C0070476548016800680002C1F3870100F45C
:10211C0040700843704730B5604C61490A68656887
:10212C00ED07C2F30351C2F303430AD42468250517
:10213C0001EB2571240481F3040103EB247383F375
:10214C0004031B0443EA015193B21943222824BF10
:10215C0002F080400143084630BD0021202803D303
:10216C0050480068C0F301510846704701212228ED
:10217C0003D34D480068C0F3007108467047012135
:10218C00222803D348480068C0F3407108467047C2
:10219C000021202807D343480068C10C01F440718A
:1021AC00C0F3845001430846704720283F4907D3A9
:1021BC003C483F4A0068810A02EA003040EA8151FB
:1021CC00084670470021222803D337480068C0F323
:1021DC00C061084670470021222803D332480068AA
:1021EC00C0F3455108467047324800680028FBD1BF
:1021FC003148324A416812688908890041F000511F
:10220C0041F00401520748BF41F001010BD40268B0
:10221C0012F0030F07D041F003024260026802F093
:10222C000302032AFAD141607047254982B20A6041
:10223C00C0F30740486001208860224800680028ED
:10224C00FBD0002088607047B81200506E620840C6
:10225C000000094094042A430000204300A00C40D5
:10226C0070130050FFFFFC0041A10C40DCA10C409E
:10227C0040A00C406C1300500A600840A83F00506E
:10228C0008A10C40BD378600B40100100BB00C4007
:10229C0070B00C402C20094050130050AC3F005043
:1022AC0078130050981300508C13005000803F405E
:1022BC0000F03F000C00684200400340B03F00506B
:1022CC003C600C4084088C4370470000401810F0B0
:1022DC00030308D0C91A1FD3DB0748BF00F8012D30
:1022EC0028BF20F8022D130030B4144615461039BF
:1022FC0028BF20E93C00FAD8490728BF20E90C0088
:10230C0048BF40F8042D890028BF20F8022D48BF93
:10231C0000F8012D30BC7047C91818BF00F8012D0A
:10232C00CB0728BF00F8012D70470000DFF800F044
:10233C00C1C10110DFF800F009B70110DFF800F09F
:10234C003DC10110DFF800F0CDC10110DFF800F045
:10235C0085B00110DFF800F041AC0110DFF800F09F
:10236C00CDA0011070B5FFF722FA04460026DFF865
:10237C00B4530DE024FA06F0C00708D505EB86002F
:10238C00406820B1026811001CBF31469047761C92
:10239C002868F6B28642EDD370BDDFF88C03016875
:1023AC00DFF888030160DFF88803FFF70EBA2DE928
:1023BC00F0470E00F5B2044644BF86F0204686F482
:1023CC00C046A80000F1804000F5012004EA060395
:1023DC000168DFF860733B4086EA0102A1431943B0
:1023EC00224004F4E023120EB3F5E02F02F00102B8
:1023FC0002D1CA0105D411E014F4E02F08BF002A61
:10240C000CD001F4E022B2F5A02F04D0B2F5C02F0D
:10241C0004D1052200E0062262F31241DFF81873A2
:10242C0001603868E84000F0010805F1804000F5D3
:10243C000839B00DB8F1000F00F0010A03D16002A9
:10244C0048BF89F800A020020DD5FEF7E1F8012263
:10245C003968AA4033024CBF1346002391431943F9
:10246C003960FEF7D9F8B8F1000F03D0600248BF0D
:10247C0089F800A0BDE8F087002948BF0021800042
:10248C0000F1804000F5012001F03F010268920943
:10249C0041EA82110160704710B5DFF8A0020068B4
:1024AC0000F07F04FFF772FC012804D1FFF764FCF5
:1024BC00022808BF641C204610BD2DE9F04FA1B0C6
:1024CC000546FEF7EFF8FFF761FC0026012804D162
:1024DC00FFF752FC022808BF0126DFF86402C1682E
:1024EC00C1F3815101294FF0010A04D10068000E9B
:1024FC000AFA00F00643DFF84C02DFF828420078B5
:10250C00DFF84492FFF7C8FF206020B10146FF229C
:10251C00484600F02FF94FF00008002706E00AFAB1
:10252C0000F001F8097040EA08087F1C55F82700F4
:10253C00C1B2FE290AD0FF29F7D02268914203D2FA
:10254C0026FA00F2D207EAD502206FE00920FEF746
:10255C0097F9C4F8805008232422002117A8FFF70C
:10256C00E5FE8DF874A017AA012104F1D400FFF741
:10257C00E1FE0027DFF8D4A10BE05046FFF717FF70
:10258C004FF0FF31F8B2FFF777FF0020CBF80400D3
:10259C007F1C2068874213D226FA07F0C00704EB91
:1025AC00870B48BF0420F1D428FA07F0C00747BFB7
:1025BC0017F8090055F82010F8B240F4C041DCE7D8
:1025CC000823302200210BA8FFF7B8FEDFF880515A
:1025DC00DFF88021287813900BAB0020009010219D
:1025EC0004F18400FEF724F808232822002101A816
:1025FC00FFF7A8FE6868DFF8601107900023002041
:10260C00089001AA04F1A000FFF7A0FEDFF84C012E
:10261C00016821F47C5141F4005101600120DFF884
:10262C0040110860DFF83C110860002021B0BDE8C3
:10263C00F08F2DE9F0413B4E04460D4606F1D408CF
:10264C0000F036F8002035B9002020606060A060F2
:10265C0085B125E0401C15F82010FE29F4D0FF2987
:10266C00F8D03268914204D206EB81014968002906
:10267C00F0D000244046FFF76DFE2046BDE8F08107
:10268C0006EB81020123546003FA01F162681143E5
:10269C00616055F820202D49204600F02FF838466F
:1026AC0015F82010FE29E5D0471CFF29E8D1F6E7E4
:1026BC004FF0FF314046FFF751BE2B4913E010B5E8
:1026CC00184B1C68A14204D203EB81035B68834264
:1026DC0001D0022010BD1000244A18BF0120505414
:1026EC00002010BD22490968C14001F0010070476B
:1026FC0000281ABF016000200220704738B5094C31
:10270C0025680B461146CAB2AA4204D204EB8202D7
:10271C005268824201D0022032BD1846FFF747FEB4
:10272C00002032BD400B0020E0200240E02002607F
:10273C00E00B0020007F077FD020024044130050A4
:10274C00A83F0050E60D0020780D0020007FC767E1
:10275C00D02F0000A7230000712300000030094097
:10276C000C40094008000940C020024000200240F3
:10277C008020024062F30F2262F31F4200B500BFBB
:10278C00130096469446103928BFA0E80C50FAD88E
:10279C005FEA417C28BF0CC048BF40F8042BC90736
:1027AC0028BF20F8022B48BF00F8012B00BD000009
:1027BC00DFF800F00DC30110DFF800F067BE011068
:1027CC00DFF800F081C60110DFF800F095B70110BA
:1027DC00DFF800F08DC20110DFF800F03DC20110EF
:1027EC00DFF800F009C30110DFF800F045C001105C
:1027FC00DFF800F0D1C701100C381F283ED8DFE8F5
:10280C0000F0103D3D3D3D3D3D3D3D3D3D153D3DCB
:10281C003D1A3D3D1F243D3D3D3D3D293D3D3D2E59
:10282C003338DFF84C01006800687047DFF840016E
:10283C00006880687047DFF838010068C06870472E
:10284C00DFF82C01006800697047DFF8240100688C
:10285C0040697047DFF81801006880697047DFF83D
:10286C0010010068C0697047DFF804010068006A55
:10287C007047DFF8FC000068406A70470020704722
:10288C0000B58BB00A216846FFF792FF0BB000BD74
:10289C0000B581B0FEF7ACFFDFF8D800DFF8D81038
:1028AC000068884218BF00F05DF8DFF8D000B0F582
:1028BC00B26F03D001B05DF804EB54E001B000BD81
:1028CC0030B581B004460D4601E02D1A044445B1E3
:1028DC002A462146012000F059F8012801DB8542E7
:1028EC00F3D201B030BD00B581B0FFF765FFDFF862
:1028FC009000C06801B05DF804EBFEF7C9BE00B5EE
:10290C0081B0FFF759F8012818BFFEF7D9FE0FF276
:10291C001D00FFF755FFFFF757FFFFF759FFFFF7B4
:10292C005BFF01B05DF804EBFFF75ABF00B581B057
:10293C00FDF756FEFDF758FE01B05DF804EB0320E1
:10294C00FFF752BF10B504460320FFF74DFF20469A
:10295C00BDE81040FFF74CBFDFF82810DFF8280067
:10296C0088617047FEE7FEE7FFF73AB8FFF750B80B
:10297C00F001002098CA0110704728209005000033
:10298C0078010020440100200008000080B50028D8
:10299C0002D400F003F802BD002002BD80B500296E
:1029AC0001D1002002BD012801D0022802D100F083
:1029BC0004F802BD00F011F802BD30B583B00C0074
:1029CC001500012000F032F8009001940295694640
:1029DC000520ABBE281A03B030BD10B584B003007F
:1029EC00140000930191029469460520ABBE0122AC
:1029FC001900201AC046C04604B010BD80B500F0C6
:102A0C0033F802000023DB431068984204D0110015
:102A1C000220ABBE002010605068984204D0111DFB
:102A2C000220ABBE0020506001BD000010B584B088
:102A3C00040000F019F8A100421810680021C943E5
:102A4C0088420DD107A00090002C01D1002000E09D
:102A5C00042001900320029069460120ABBE106057
:102A6C0004B010BD3A74740000487047280500206B
:102A7C00DFF800F049C70110DFF800F055C0011075
:102A8C0010B50C0000203048FEF7C2FB2000C0B28D
:102A9C00FFF713FE002823D1E4B20D2C02D00E2C2C
:102AAC000FD01DE00620FFF71DFE002801D10122EA
:102ABC0000E00022D2B2062124480068FFF7FFFD97
:102ACC000EE00720FFF70EFE002801D1012200E0E6
:102ADC000022D2B207211D480068FFF7F0FDFFE786
:102AEC0010BD80B5FDF7DEFD1948FFF7E6FC0028A8
:102AFC0002D01848FFF7BCFF17491848FFF799FD9B
:102B0C001249086011480068002802D11448FFF7E8
:102B1C00AFFF14491448FFF78CFD144908601348A3
:102B2C000068002802D11248FFF7A2FF11490F4894
:102B3C000068FFF7DDFD002802D00F48FFF798FF73
:102B4C00FFF79AFF002002BD801A0600D80D002066
:102B5C00602D0000542F000050020020B80D002002
:102B6C00082E00005C020020AC0D0020D40D0020CB
:102B7C00EC2E00008D2A00008C2D000030BF704719
:102B8C0038B5FEF73DFBFEF7EDFAFDF768FD0446A0
:102B9C0004F00C000C2849D0600721D4FEF792FDFC
:102BAC00054601210120FDF764FD2349096801FB5D
:102BBC0005F2904214D28220B0FBF1F01F4C291A7E
:102BCC0004F10C00FDF71CFD04F10C00FDF71CFDDD
:102BDC000120FDF7ADFE04F10C00FEF7D0FD27E05F
:102BEC00200723D41648FEF7B7F90428FAD0E206DA
:102BFC00144900D418B9086840F0010002E00868D4
:102C0C00400840000860104C1048114D016841F01C
:102C1C0003010160202021688969884728682068A1
:102C2C00806B804701202860286801E0FFF7A6FF31
:102C3C00BDE83140FEF7E8BADC2F00001804002094
:102C4C00004003408C210840B801001024220840A9
:102C5C002C200940F0B4016844688368014401EBFE
:102C6C005402E40748BF4B44914202D1F0BC0C30F3
:102C7C00704711F8015B15F0030604BF11F8014B06
:102C8C00E61C2C090F2C07D111F8014B0F3403E073
:102C9C0011F8017B03F8017B761EF9D1002CE3D0EF
:102CAC00AD0811F8016B05F00305032D08BF11F8F1
:102CBC00015B06EB05256D42A41C1D44D4D015F810
:102CCC00016B03F8016B641EF9D1CDE77B756E6B5C
:102CDC006E6F776E2D696E7374616E63652D6E61A8
:102CEC006D657D007B656D7074792D696E73746193
:102CFC006E63652D6E616D657D0000007B73746184
:102D0C007469632D696E7374616E63652D6E616D8C
:102D1C00657D000019E050F8041BCB0744BFA9F1F6
:102D2C0001035918121F0023042A41F8043BF9D25D
:102D3C005FEA827C0B4604D54FF0000CA1F800C072
:102D4C009B1CD10744BF0021197050F8042B002A9A
:102D5C00E1D1704706088080070880800D2007C0ED
:102D6C000E2007C01400C080024000800300C08009
:102D7C0009400080084000800A400080FE000000EE
:102D8C004572726F72207265676973746572696ED1
:102D9C006720627574746F6E2063616C6C62616322
:102DAC006B2066756E6374696F6E00007FC80110CE
:102DBC00D5190000C9BC011051B2011037C2011065
:102DCC00BDAD0110C1B1011071BA011069BB011088
:102DDC0021C0011010B5074979441831064C7C44C8
:102DEC00163404E00A68081D114488470146A142C4
:102DFC00F8D110BD2C000000E80000004572726F85
:102E0C007220696E697469616C697A696E67206297
:102E1C006F617264204C45442070696E730A000027
:102E2C00F5FEFFFFA8080000400500200000000090
:102E3C0025FEFFFFFB0200002E00000078010020A1
:102E4C0015FEFFFF3C03000006000000EC01002013
:102E5C0005FEFFFF2103000006000000F00100202A
:102E6C00F5FDFFFFE202000034000000A401002089
:102E7C00E5FDFFFFEC02000018000000C801002077
:102E8C00D5FDFFFF6D02000038000000000100209E
:102E9C00C5FDFFFFEF0200000C0000000002002047
:102EAC00B5FDFFFFD402000010000000F801002067
:102EBC00A5FDFFFF59020000440000004401002062
:102ECC0095FDFFFFA802000012000000E4010020A5
:102EDC0085FDFFFF100100001A020000080200200F
:102EEC004572726F7220696E697469616C697A6976
:102EFC006E6720627574746F6E2070696E730A0051
:102F0C00DFF800F059C501100548012808BFFFF78C
:102F1C00BFBC70470348012808BFFFF7F1BF7047DB
:102F2C00010000000100000000F00BF8002803D0A5
:102F3C00FFF750FFFFF7EEFF0020FFF7D2FDFFF782
:102F4C0057FC0120704700004572726F7220776940
:102F5C0074682050494E5F696E69740A0000000065
:102F6C0000B581B0FFF7D0FFC046C04601B05DF898
:102F7C0004EBFFF7D9BF000045F20000C2F20000DD
:102F8C00854642F66D70C0F200008047FEE70000F7
:102F9C000100010000000000000000000000000023
:102FAC000100000045B501106529000099A601102B
:102FBC0019B80110000000008D2B00000D0B000053
:102FCC0001010100FF0000000000000020000000D3
:102FDC000A000000000300209B0600008000000097
:102FEC00CD2800001200018301000143C5A70D6329
:102FFC00F32815B007010070020020C5A70001617D
:10300C0010610810070608C08007088080FE0F10AA
:10301C00030D2005800E04210C12683C2104613E36
:10302C0010031F190000030D3001FF001413128848
:10303C001C21045290048340026841981001010045
:10304C00AC18F206AC1C12C818210452D00452D889
:10305C000412CC211208245340057C42041012F8AF
:10306C001C2104439C0104C701000043A7170D2039
:10307C000220030020045228045230045238045217
:10308C00400483F7163D12050BC32000014398033F
:10309C00131270082104527804528004528804528E
:1030AC00900452980452A00452A804830000A86211
:1030BC00046415104340091CD0030BC2011000011D
:1030CC00D2011112F448210452FC044304040452AA
:1030DC000C046168F1C7016510F3090101E61003E6
:1030EC000F0C00007D0443CF0B2452FF0187F80C1A
:1030FC001C83010001A10CD003F403002000014348
:10310C0014041420023401002004523C0412000167
:10311C001003E40D0020DC0412E0042200015248EC
:10312C0008700700002001010000300C1031015222
:10313C000001100708020020400300200111D301F8
:10314C0000011118210422000150026CDC02000164
:10315C005003B4020020030D10030B29000051048E
:10316C00F30101000120027003002017120001007E
:10317C0002080200205200011003C40D00200001BF
:09318C001200010002080000001D
:020000040001F9
:10FFA80000008001100082FFFDFF58003AFFBFF3F8
:10FFB800FFFFFFFFFFFFFFFFFFFFFFFFFFFFFFFF49
:10FFC800FFFFFFFFFFFFFFFFFFFFFFFFFFFFFFFF39
:10FFD800FFFFFF00FFFFFFFF00FFFFFFC500C5FF9A
:10FFE800000000FF00000000FFFFFFFFFFFFFFFF12
:08FFF800FFFFFFFFFFFFFFFF09
:0400000500002F8543
:00000001FF
