:10000000005000204D57000001CA011001CA011024
:1000100001CA011001CA011001CA011001CA011070
:1000200001CA011001CA011001CA011001CA011060
:0C00300001CA011001CA01103FCA0110F2
:100100003C0000000000000000000000340100007E
:1001100000000000000000000100000000000000DE
:1001200000000000000000000000000001000000CE
:0C013000000000000800000000000000BB
:10013C003400000000000000000000006801000016
:10014C0000000000000000000100000000000000A2
:10015C00010000000000000000000000080000008A
:04016C00000000008F
:1001700030000000000000000000000098010000B6
:10018000040000000000000001000000FFFFFFFF6E
:10019000FF00000001000000080000000000000057
:1001A0002C0000000000000000000000C40100005E
:1001B000040000000000000001000000FFFFFFFF3E
:0C01C000FFFFFFFF08000000000000002F
:1001CC0034050000E401000099A1011095A701106D
:1001DC00A5C2011009B2011045B80110A9BC01104B
:0801EC0089BC01102F00000086
:1001F40028000000000000000000000014020000BD
:100204000000000000000000FFFFFFFF00000000EE
:080214000800000000000000DA
:10021C00300500003002000069C201106DC10110F0
:10022C001FC2011095BA011009BC0110E9BB0110E5
:04023C002D00000091
:10024000300500005402000075C20110A9B601106B
:100250009DBF011049B60110B9BA011029BC0110A7
:040260002E0000006C
:1002640024000000000000000000000080020000E4
:100274000000000000000000000000000800000072
:040284000000000076
:10028800240000000000000000000000A40200009C
:10029800000000000000000000000000080000004E
:0402A8000000000052
:1002AC00240000000000000000000000C802000054
:1002BC000000000001000000000000000800000029
:0402CC00000000002E
:1002D000000000003C0300200400000000000000BB
:1002E000000000002000000070010000300000004D
:1002F0001C0200005C03002004000000000000005D
:10030000000000000C000000300400001800000095
:100310004002000064030020040000000000000010
:100320000000000024000000480400001800000045
:1003300000000000A40300200400000000000000F2
:100340000000000010000000A00100002C000000D0
:10035000CC010000AC0300200400000000000000FD
:1003600000000000200000006402000024000000E3
:10037000FFFFFFFFCC03002004000000000000008E
:100380000000000028000000880200002400000097
:10039000FFFFFFFFF4030020040000000000000046
:1003A00000000000580000003C0100003400000084
:1003B000FFFFFFFFFC03002004000000000000001E
:1003C00000000000100000006004000018000000A1
:1003D000FFFFFFFF040400200400000000000000F5
:1003E000000000001C000000AC020000240000001F
:1003F000FFFFFFFF0C0400200400000000000000CD
:100400000000000038000000F40100002800000097
:10041000FFFFFFFF74040020040000000000000044
:100420000000000054000000000100003C0000003B
:100430001800000000000000000000004004000060
:080440000800000000000000AC
:100448001800000000000000000000005804000030
:08045800080000000000000094
:100460001800000000000000000000007004000000
:0804700008000000000000007C
:0804780001000000BC57000068
:040484000100000073
:0404880000000E0062
:04048C0000000F005D
:040490003200000036
:040494000100000063
:0404980044030020F9
:04049C00000200005A
:0404A0000000000058
:0404A40001CA011078
:0404A8000000000050
:0404AC00000000004C
:0404B0000800000040
:0404B4000000230021
:0404B8006C030020B1
:0404BC00010000003B
:0404C000B403002061
:0404C400080000002C
:0404C8000000000030
:0404CC00000000002C
:0404D0000000000028
:0404D4000000000024
:0404D8000000000020
:0404DC00010000001B
:0404E00014040020E0
:0404E400060000000E
:0404E800010000000F
:0404EC007C0400206C
:0404F0000000000008
:0404F4000000000004
:0404F80000020000FE
:0404FC0000000000FC
:020502002800CF
:020504000100F4
:020506002400CF
:020508002D00C4
:02050A002E00C1
:02050C002F00BE
:02050E000100EA
:0105100001E9
:0805140004000000785700000C
:08051C000000000000000000D7
:0405240000000100D2
:0405280000000300CC
:04052C0087C401106F
:04053000380500008A
:040534003805000086
:0405380000000000BF
:04053C00900000002B
:040540009000000027
:0405440000000000B3
:04054800B4030020D8
:04054C00FD4F00005F
:040550002000000087
:0405540064570000E8
:0405580080550000CA
:04055C000DC30110BA
:04056000411800003E
:040564004318000038
:0405680099C801101D
:04056C009BC8011017
:040570000000000087
:04057400EA18000081
:04057800905400009B
:04057C00A85400007F
:0405800078540000AB
:0205840008006D
:0205860009006A
:02058800010070
:02058A0000006F
:01058C00016D
:040590000000000067
:040594000000000063
:04059800000000005F
:04059C00000000005B
:0405A0008F170000B1
:0405A400AF1700008D
:0405A800B316000086
:0405AC00D91700005B
:0405B000FB16000036
:0405B400D11600005C
:0405B8002D170000FB
:0405BC00051800001E
:0405C000754F000073
:0405C400C150000022
:0405C800C55000001A
:0405CC000800000023
:0405D0002400000003
:0405D400180000000B
:0405D80028000000F7
:0405DC0020000000FB
:0405E0003C000000DB
:0405E4000C00000007
:0405E80034000000DB
:1005EC00DFF800F0D5C00110DFF800F049C10110B0
:1005FC00DFF800F019C20110DFF800F085C101101E
:10060C00DFF800F079B50110DFF800F0C1C201107D
:10061C00DFF800F0E3BF0110DFF800F0E1B50110E6
:10062C00DFF800F029AF0110DFF800F0C1C10110B4
:10063C00DFF800F009B70110DFF800F03DC1011040
:10064C00DFF800F0CDC10110DFF800F085B001102B
:10065C00DFF800F041AC0110DFF800F0CDA0011084
:10066C00DFF800F0DDB2011020B1082328220021B0
:10067C00FFF7E6BF704720B1082330220021FFF7B7
:10068C00DBBF704738B500F0D3FE25680DB1296883
:10069C002160FFF7ADFF284632BD70B504460D460C
:1006AC002668002028601EB9FFF79EFF25600DE02C
:1006BC00FFF79AFF00E0366831680029FBD1AE42A3
:1006CC0003D1FFF795FF002070BD3560FFF790FF59
:1006DC00012070BD0022DFF8541C01EB4211CB7FCE
:1006EC001B0605D5B1F91C30834201D10846704771
:1006FC00521CD2B2082AEEDB0020704770B50646B9
:10070C00FFF772FFDFF8505C0446A87ED0B1401EA4
:10071C00A876C0B2B0B9082100F01DFC96B1A86B48
:10072C00703000F058FF00F010FE301AB0FBF1F101
:10073C00022938BF0121EC352846FFF765FF284612
:10074C00FFF766FF204600F065BE10B50446207B1F
:10075C0000F00F0002280FD100F012FDA168081A5A
:10076C00DFF8F41B896BC968800801F57A71814246
:10077C0038BFB0F1405F00D3002010BD38B5DFF8B2
:10078C004C0ADFF84C2A0168DFF87C4C02EA0105C0
:10079C00E9430160A90608D54068800605D54FF4E9
:1007AC00005104F14C0000F03CFF15F4602F08D010
:1007BC00206905F4602108432061002104F19C00AC
:1007CC00CFE131BD70B5FFF70FFFDFF83C4C0646AB
:1007DC00206910F4602F27D02069C5012D0EE80781
:1007EC0048BF002506D4A80748BF012502D46807D6
:1007FC0048BF0225681D40B200F02CFE2069012183
:10080C0005F111029140884320613046FFF7F0FE5C
:10081C0004EB85004668300009D0206800224FF0B8
:10082C000063691DB04702E03046FFF7E1FE206926
:10083C0030B104F19C00BDE87040002100F0F1BE25
:10084C0070BD70B500F0FAFFDFF80C5BDFF8BC4B45
:10085C00AB6A024690071DD4D3E90401104007D0BF
:10086C00EB629969084398614FF4804100F073FB87
:10087C00A86A002847D16E6A002E44D0F068A96B94
:10088C00884224D005F14C00BDE870404FF48051F3
:10089C0000F0C7BE0BB9A86AEAE70020A862D3E94A
:1008AC0004019E69024042F0020232439A6162697D
:1008BC0082436261E26822EA0100E060194605F1B8
:1008CC003000FFF7EAFE022100F045FBE3E7B068D9
:1008DC00FFF73BFFA86408B1A86CD6E0D6E9040189
:1008EC00626902436261E26841EA0200E060002052
:1008FC00E061B0682060E0690028FCD005F12400BC
:10090C00FFF7C0FEAE6270BD0020F7E6F8B50646F4
:10091C001446376E1D4607B1B847A00706D4D6E972
:10092C0016012040294008BF002807D0C6E91A4507
:10093C0006F13800BDE8F240FFF78ABEF1BDFEE7D4
:10094C0080B500F060FEDFF8C02A0146906BD26BD8
:10095C00BDE80840104710B5DFF8AC4A0FF2311172
:10096C00E06B884202D100F0C5FF206404F14C001A
:10097C00BDE81040042100F054BE80B500F05EFFCD
:10098C00DFF88C1A084207D0BDE804404FF0005144
:10099C00DFF8880A00F045BE01BD70B5040073D0C5
:1009AC00A168202001E04968401E79B1C0B268B14D
:1009BC000A8840F603039A421CBF40F604039A428D
:1009CC00F1D1E0681822203000F0B0FFA0690021BE
:1009DC00A1616168D9B140F00202E07F002300F010
:1009EC000700012807D0022809D0042804BF0022E0
:1009FC004FF0805306E000224FF0005302E000223B
:100A0C004FF08043B4F91C10E0686568A847FFF705
:100A1C00EBFDDFF844590646E88E401C0005000D3E
:100A2C00E8860020296BC87705F13000FFF72AFE15
:100A3C003046FFF7DDFDB5F93610E06800F1B8027D
:100A4C00B2F90030994204BF297E00291CD191785B
:100A5C0009B9016811B90020907016E0AA6B1268F0
:100A6C0012F1010F10D0DFF8E0291268B1FBF2F19E
:100A7C00022938BF01217030FFF7C6FDE068BDE8E0
:100A8C0070407030FFF7C4BD70BDBDE8704035E6F6
:100A9C0038B50D46A807DFF8C04816D5206BFFF710
:100AAC007CFF206B25F0020510B145F0020109E036
:100ABC00680702D4606A002852D004F1EC0000F000
:100ACC008AFD042104F14C004BE0680748D5606AAC
:100ADC0008B1C068A063A06BDFF85C19426812789B
:100AEC000A6009684268127891421CBF8569002D22
:100AFC0005D000224FF000736FF0FF01A8470220D1
:100B0C0001F057F8112001F069F801206077A06B13
:100B1C00E17E007C084204BF0E2001F05FF8A06B60
:100B2C00DFF8E81840688268002A04BFC068002813
:100B3C0004D00020C861DFF80409086040F2FF709F
:100B4C00DFF8FC28106000208861DFF8C4084861D9
:100B5C000FF21900E0631920BDE83240FFF780BDA9
:100B6C0031BDBDE8344000F05CBD00002DE9F04320
:100B7C000446880085B040F1B280DFF8DC57A86BE2
:100B8C0040684068010018BF8047A86BDFF87C887C
:100B9C0041688A68002A04BFC968002915D0D8F8B2
:100BAC001C100029FBD00021C8F81C10406880687C
:100BBC00010018BF8047A86B4068C068010018BFCF
:100BCC008047DFF8880800F041FE0020C8F81C00C0
:100BDC0040F60A09DFF87808DFF8B478C8F80000A6
:100BEC00012000F07BFE0FF24D10E863A7F8009097
:100BFC0000F0B5F900F0A8F90020A6687080E87E36
:100C0C0008B1607CA8B1A068008840F60201884257
:100C1C0005D1308A4FF60F410840308204E0308B0A
:100C2C004FF60F410840308300206074A06800F03C
:100C3C0043FEA068694600F031FE684600F03DFEB8
:100C4C0000E00646706800281CBF01884945F8D1B1
:100C5C00776040F60301707B00F0F0007073686AF7
:100C6C008068008888421CBF40F60401884202D18B
:100C7C000020286415E0208C98B104F1200000219C
:100C8C0041804160017B01F0F0010173417B01F077
:100C9C00F00141F0010141737860787B00F0F000C5
:100CAC007873D8F81C000028FBD00020C8F81C0072
:100CBC00012001F021FA012808D0707B00F0F0002F
:100CCC0040F0010070730FF21D00E8634FF6FF3225
:100CDC00A068018A11400182A068C8F8000005B024
:100CEC00BDE8F083DFF8AC07014200D1704701206A
:100CFC0010B501F001FA0128DFF85C4608D10FF2BB
:100D0C003500DFF80817E063DFF88407086010BDD2
:100D1C00DFF8341709683220B0FBF1F1022938BF33
:100D2C000121EC342046FFF76FFC2046BDE8104053
:100D3C00FFF76EBC2DE9FE4306460C466004DFF857
:100D4C00185619D5FFF750FCEE6AB769B9070ED4DF
:100D5C006EB10021B161FFF74BFC706848B1B6F978
:100D6C001C10F06876683A460023B04701E0FFF7A4
:100D7C003FFC24F48044E1E0A0070AD5286BFFF780
:100D8C000CFE286B002824F0020401D044F002046D
:100D9C00D4E0A00005F1800840F60909DFF8F076F0
:100DAC0073D5B068018840F60202914205D1028ADF
:100DBC002D2161F30912028204E0028B2D2161F3D3
:100DCC0009120283286CC8B1042001F095F9A8B16E
:100DDC0000F090FD296C814228BF401E401A000B88
:100DEC00F060718AF0680818F06040F2D761A0F2E8
:100DFC00EE20884224BF40F6C410F060D6F818C02C
:100E0C00BCF1000F1CBFDFF894168C450DD0787B1D
:100E1C000F21084204BF708C484506D100224FF0C8
:100E2C0000736FF480713046E0470022DFF87016D3
:100E3C00404600F009FC287F50B10220ADF80000BC
:100E4C00684600F003FDBDF80800A8820020287752
:100E5C0001206876A87E401CA87600206877686A16
:100E6C0018B1192000F0F3FB01E044F00204D6F8AD
:100E7C001480B8F1000F05D000224FF080630021E0
:100E8C003046C04724F0005458E095F8200024F078
:100E9C00080628B1200703D5002085F820003AE089
:100EAC0020073AD5002068760120A877002000F0B2
:100EBC0015FD0FF2BD00DFF8EC15DFF88845E8638F
:100ECC000022404600F0C0FB297FE87E81F0010142
:100EDC00084202D10120E8760FE0A86CA8B100F01E
:100EEC0009FD296C6A6C401A02EB10306864A96C1D
:100EFC00B0EBC11F09D300206864A7F8009000F084
:100F0C0023F800F02CF8276003E04FF0005100F0BC
:100F1C0022F800202864344610E0A0040ED5AE6AF6
:100F2C00002E1CBF7068002806D0B6F91C10F068A3
:100F3C00766800222023B04724F4005414B12146D3
:100F4C0000F009F8BDE8F783787B00F0F00040F082
:100F5C0001007873704705F14C0000F062BB002073
:100F6C007880387B00F0F000387300207860704790
:100F7C0070B505460E46B007DFF8DC430BD5206B89
:100F8C00FFF70BFD206B08B1022129E0B0002DD535
:100F9C004FF0005124E0B00028D500F064FCDFF8DD
:100FAC000805DFF80865E063307818B905F13800FA
:100FBC00FFF74EFBDFF8881400200860022000F0D9
:100FCC008EFD112000F09FFD287C10B90E2000F042
:100FDC009AFD0020E083B07840B10020B07004216D
:100FEC0004F14C00BDE8704000F01BBB70BD30B587
:100FFC008DB000F005FDDFF8B804DFF8B8440168E7
:10100C00DFF8545341F00201016001A8FFF72CFBFB
:10101C00A078DFF8A4140790002301AA05F14C0076
:10102C00FFF712FB01A8FFF726FB0020ADF81C0010
:10103C0001AB2078DFF86C24099019210020009076
:10104C0005F18000FFF7ECFA01A8FFF70DFBE07843
:10105C00DFF868140790002301AA05F19C00FFF744
:10106C00F3FA01A8FFF707FB0120ADF81C0001AB58
:10107C006078DFF84C2409901A210020009005F1CB
:10108C00D000FFF7CDFA00230022DFF8381405F169
:10109C00EC00FFF7B5FADFF81004E8634FF6FF70C9
:1010AC00A882012028770020E875E8766877E88325
:1010BC0085F8200028640DB030BD2DE9F041DFF833
:1010CC00EC638EB0044630780F4690461D4618B936
:1010DC00FFF78DFF01203070002F1CBF6760B8F147
:1010EC00000F4BD0C4F80880FFF77EFA7178002906
:1010FC0042D101217170FFF77BFA35B909A80FF2C3
:10110C00E431142200F012FC09AD286820606868F4
:10111C00E060287C2074A868606101206074688A93
:10112C006082E868010018BFA061A02104F12000D2
:10113C0001F058F80823242200216846FFF774FABE
:10114C0001208DF818006A46002104F13800FFF7E1
:10115C006FFA0823242200216846FFF74DFA069403
:10116C006B460022DFF8601304F17000FFF748FAB9
:10117C0020460EB0BDE8F081FFF73AFA0020F8E700
:10118C0038B5FFF731FA7449497E31B1DFF84013B5
:10119C000C68FFF72DFA204632BDFFF729FA00F054
:1011AC00A9FB10F50030DFF82C2341F10001A2FB64
:1011BC000045DFF8E40202FB01550169002022180A
:1011CC0045EB0103184632BD000000000810044036
:1011DC0020000E002DE9F84F04460E4692469B4621
:1011EC00FFF702FA5C4D8046B5F93400B5F93610BC
:1011FC00401A0005000D08286FF0010944DAA88E8A
:10120C00401C0005000DA886B5F93400ADF80000AF
:10121C000020464901EB4017F97F090604D5401C14
:10122C00C0B20828F5DB002704F1700000F0D3F9F8
:10123C00BE6087F81EA0C7F804B02021BDF80000DE
:10124C00B883FC60DDE90A23DFF88C0210401940FA
:10125C00C7E90401B8340020F87740F6FF76686AD5
:10126C000028394605F1240006D0FFF716FA30B1F4
:10127C0000F05EF840464BE0FFF70FFA40B9A88E3D
:10128C0030180005000DA88600F0CAF848464AE060
:10129C0000F04EF8E87F697E084208D0012085F8FE
:1012AC0020000020E8772877A87E401CA87600F064
:1012BC00B7F8A86A002834D1687E18B1192000F05C
:1012CC00C6F92EE0687F60BBFFF78EF90446A87F55
:1012DC0020B1DFF8D8110120887018E0B868FFF74A
:1012EC0034FAA864B8B100F030F8AA6C121AB2FB48
:1012FC00F1F2022A23BFAA6C101AB0FBF1F1012102
:10130C00EC352846FFF780F92846FFF781F920468F
:10131C00FFF76EF905E02046FFF76AF90421FFF7A5
:10132C001AFEBDF90000BDE8F28F00003017002056
:10133C00BDF800002080F87F40F08000F877A0789E
:10134C0010B10020A07028777047A86BDFF8F81058
:10135C00C068096870470000201500202DE9F04195
:10136C0006460F4614461D46FFF73AF980463846A6
:10137C00FFF7B0F9070003D14046FFF74DF90AE03B
:10138C00F87F0721084209D04046FFF745F90721AD
:10139C00F87F0842FCD10220002116E07968DFF8C2
:1013AC003C01814202D0796831667860C6E9164505
:1013BC004046FFF731F94FF0FF3106F13800FFF7E7
:1013CC004BF900203066D6E91A01BDE8F081DCB596
:1013DC000446180008BFDFF80431DDE90667CDE9E3
:1013EC0000672046FFF7F6FE002803D500204FF0DB
:1013FC000041DCBD0146204602B0BDE8D0400222CF
:10140C004FF0E043AAE70000201500200010044034
:10141C0002000040BDE87040FFF7EAB86C150020F0
:10142C004046FFF7E5B80FF2BC01142200F07EBA7B
:10143C000446FFF7D9B80000D02108405100070638
:10144C000000046000100440B457000001000706BF
:10145C0001010E0438B5FFF7EBFF1C49CA7D52079A
:10146C0002D58B7D9C420FD001228B8A02FA04F5A7
:10147C002B438B820C341A4B1D68A24025EA0202C6
:10148C001A601A6802B90A76BDE83240FFF7B0B8A4
:10149C00001C002004000020001C00204B09000050
:1014AC004F080000870900009D0A00005C1C00200A
:1014BC0000200940C05700004D090000D107000072
:1014CC0089070000630900001509000020150020A1
:1014DC000430044000093D00F1EFFF9F19090000A2
:1014EC000C100440FFFFFFFFC409000000000000C7
:1014FC004B09000001001A01DFF800F021B30110C4
:10150C00DFF800F095C00110DFF800F00DA8011015
:10151C00DFF800F0BDBE0110FEE76BE038B5FFF759
:10152C00FCFFDFF8F0500446A8680021FFF7E8FF45
:10153C006969081AA969814238BF002084F31188AF
:10154C0032BD2DE9F041FFF7E8FFDFF8C850044643
:10155C00A8680121FFF7D4FF0121A9830021E983A9
:10156C006E6929682A68871B801A711A884204D20E
:10157C000020A88384F311882BE084F311880024C5
:10158C0006E0A61931460120FFF7BEFF3F1B0446BB
:10159C00A742F6D2FFF7C1FF8046E88B012804D1A1
:1015AC0031460020FFF7B0FF0446A96914F1010F82
:1015BC0008BF084603D0E01B814238BF084681199A
:1015CC00FFF7A6FF012028840020A8832E6088F353
:1015DC001188BDE8F08100218182DFF83410C068E9
:1015EC004969884204D1DFF854000068FFF710B84D
:1015FC0070477047DFF848100968EFF3118081F3EA
:10160C0011887047F6E7DFF83C00806870470000EF
:10161C007801002078010020616280F31188204657
:10162C00704738B504460D46FFF7ECFF616A294355
:10163C00FFF7F2FFBDE83240FFF75EBFB85700007E
:10164C00B0570000C801002081604260704710282C
:10165C0004D3DFF80C101038C1F8000F70470000ED
:10166C0000E000E000F0C2BDFFF7C4BFDFF8981146
:10167C00C20744BF01220A60820744BF4FF4807244
:10168C000A60400744BF4FF4803008607047DFF8B1
:10169C007C21C30748BF1160830748BF51604007D6
:1016AC0048BF9160704710B504460020D4E90A2366
:1016BC0047F6906100F046FE0123994228BF4FF097
:1016CC00FF3010BD10B50C4600F00AF9011D201AB0
:1016DC00B0F1004F05D8081BB0F1004F38BF8C4259
:1016EC0000D20C462146BDE810400120CFE72DE981
:1016FC00F04180460A46D8E90A01D8E90C45A0FB1E
:10170C00026701FB0277A6196F41340C002244EAF0
:10171C0007414046FFF7D6FFC8E90E67BDE8F081E8
:10172C00F8B50646FFF7A0FF0446DFF8E450DFF8F3
:10173C00E4700120E861FFF799FFF96A096A142047
:10174C0088473069B0F5802F34BF0421010C01208B
:10175C00FFF79DFF3A681268232100209047DFF8BD
:10176C00B81001200860DFF8B800016821F4E0210E
:10177C0041F4803101600120286084F31188F1BDAF
:10178C00000000F0B7B810B5DFF89000446800F026
:10179C0006F86069A169BDE8104008470000012007
:1017AC0064E7F8B504460D4600F0A4F8D4E90A67DE
:1017BC0032463B4600F0C6FD3DB1A6FB002306FBBE
:1017CC00013307FB0033C4E90C23F2BD10B5DFF87D
:1017DC004000DFF85040002101600121C16121600F
:1017EC002068FFF7DCFFDFF848100968096A14204D
:1017FC008847206810BD000080B500F07BF8000C15
:10180C0040EA014002BD00000420094018200940B4
:10181C00000024438401001080022443E4010020D2
:10182C00002009402C200940DFF80C00C0887047CC
:10183C00B0010010FEE77047F00100202149086854
:10184C00C2430A600A680242FAD170471E490A680C
:10185C00002AFCD1CA610860C8690028FCD00020AD
:10186C00C86148687047194801686FF0020211405E
:10187C0041F40071016003211548816041F230018F
:10188C0041610121C160502141610121C1604FF4CE
:10189C00CA6141610121C160016070470D48026855
:1018AC000A6082684A60C2688A60406B20F07840A7
:1018BC0040F08050C86070477047014610220648BF
:1018CC0000F024B810100440001004400000046024
:1018DC00004104404C1300501800002170470000D8
:1018EC0009480168426803689942FAD1100C40EA31
:1018FC000140704710B5044A136850681468A3423D
:10190C001946F9D110BD00000820094062B38B07BD
:10191C0008D0521E11F8013B00F8013B00F0248066
:10192C008B07F6D1830740F0208000BF103A07D315
:10193C0030B4B1E83810103AA0E83810F9D230BC05
:10194C00530724BFB1E80810A0E8081044BF51F8B1
:10195C00043B40F8043BD20724BF31F8022B20F89B
:10196C00022B44BF0B7803707047083A07D3B1E8D9
:10197C000810083A40F8043B40F804CBF7D2530760
:10198C00E4E70000DFF800F0F5C00110DFF800F02C
:10199C0049BA011020B1082324220021FEF72CBEE5
:1019AC00704780B50120009009234FF4007200218C
:1019BC00DFF8640600F083FD01BDDFF86006806887
:1019CC007047DFF85816401890F8ED007047002269
:1019DC00022904D1012806D140F2EE2203E00128AD
:1019EC0008BF4FF47A7210467047DFF8300690F853
:1019FC00E61021B1D0F80C01010018BF0047704768
:101A0C002DE9F041DFF8148608F1E1058AB0A879D8
:101A1C00002861D10120A871DFF80466DFF8047694
:101A2C00307B68717068C8F80C0101A8FFF7B2FF31
:101A3C0000200690ADF81400079001AB00220FF2C5
:101A4C00754108F10C00FEF7DBFD01AB00220FF233
:101A5C00215108F13000FEF7D3FD01AB00220FF24B
:101A6C00594108F15400FEF7CBFDB16801208847BD
:101A7C00DFF8B40500787868C0F38154707B20B12E
:101A8C00032C02D10120287003E0032C18BF022C78
:101A9C0016D1022000F08DF8032CDFF890150CBF46
:101AAC004FF47A7042F210700968B0FBF1F108F152
:101ABC005400FEF7A9FD08F15400FEF7A9FD05E05E
:101ACC00012C03D100F022FAFFF76BFF38684007B6
:101ADC005CBF002000F06DF80AB0BDE8F08110B5D5
:101AEC000446FEF781FDDFF83415621892F8E830F1
:101AFC005B1E82F8E830DBB223B98A680123A3406D
:101B0C009A438A6066E02DE9F0410546FEF76CFDCC
:101B1C008046DFF80815681890F8ED20521E80F802
:101B2C00ED20D2B2002A3FD10FF23C50DFF8004535
:101B3C0000EB85052E786F88300615D52168096A6B
:101B4C00384688472168896A384688472168096B76
:101B5C0038468847DFF8DC1401200860DFF8D80429
:101B6C0000688007FAD512E0700606D501EB8701F4
:101B7C000020D1F80011884709E0216889693846AE
:101B8C0088472168496B384688470228F9D106F006
:101B9C003F003F2818BFFFF7B6FF687800F03F0002
:101BAC003F2818BFFFF7AFFF4046BDE8F041FEF7F6
:101BBC001FBD10B50446FEF717FDDFF860148A68E8
:101BCC000123A3401A438A60611891F8E820521C43
:101BDC0081F8E820BDE81040FEF70ABDF8B50646CE
:101BEC00FEF702FD0446DFF83454701990F8ED103E
:101BFC004A1C002980F8ED2039D10FF26C4000EB23
:101C0C008607387800F03F003F2818BFFFF7E6FF43
:101C1C00787800F03F003F2818BFFFF7DFFF7E8881
:101C2C003878DFF80C7401060ED53968C96930466E
:101C3C0088473968496A304688473968C96A3046E6
:101C4C00884700F019F812E0400606D505EB86012E
:101C5C000120D1F80011884709E0396849693046FC
:101C6C0088473968496B304688470128F9D12046A6
:101C7C00BDE8F240FEF7BCBCDFF8B81301200860E9
:101C8C00DFF8B40300688007FAD570472DE9F04FF0
:101C9C00002483B04FF0000A0128D04618BF01265B
:101CAC0064D1DFF87893D9F8DC0001285DD10220EB
:101CBC00C9F8DC00FFF766FE0090012000F031F956
:101CCC00060054D1FEF78CFCDFF8741301900C6005
:101CDC00012000F011FA012804D1002000F076F95F
:101CEC004FF0010ADFF85C13DFF850030C6000685A
:101CFC001120FFF766FE08B14FF001081020FFF726
:101D0C0060FE08B148F002080F20FFF75AFE08B138
:101D1C0048F004080B20FFF754FEDFF8146320B1E1
:101D2C003168096B4FF4806088470A20FFF749FE41
:101D3C0020B13168096B4FF481608847DFF8F412E9
:101D4C00DFF80473DFF804B30120086048F02000CA
:101D5C00316889698847DFF8F8120120086099F822
:101D6C000800C00707D5012416E0042673E0012003
:101D7C00C9F8DC006CE0584600F0C4FB0546042DA5
:101D8C00F9D0012D04D1326A52680321584690478C
:101D9C003868800880003860002000F0BFFBA7483E
:101DAC0000683068806B804754B9012D04D1326AC9
:101DBC005268012158469047386840F0030038605B
:101DCC000120A049086040463168496988470B20CA
:101DDC00FFF7F7FD20B13168C96A4FF4806088477E
:101DEC000A20FFF7EEFD20B13168C96A4FF481601B
:101DFC00884790490120086000209549086003201D
:101E0C00C9F8DC003168496B404688470128F9D194
:101E1C00042000F086F88A49012008608748006891
:101E2C008C4800688006FBD5BAF1000F1CBF01205E
:101E3C0000F0CCF800F0BEFC082000F072F806466A
:101E4C000120C9F8DC000198FEF7E6FB00F036FC37
:101E5C000098FFF79BFD3046BDE8FE8F30B500249F
:101E6C0001288BB004D021D303281DD018D31DE03A
:101E7C0001A8FFF78FFD694D77490694ADF8144022
:101E8C00079401AB012205F17800FEF7B9FB009431
:101E9C000023724A2C2105F19C00FEF7C1FB05E0E2
:101EAC0000F0A8FC044601E000F04AFD20460BB00F
:101EBC0030BD00007047000010B582B0042000F067
:101ECC001BF9022818BF032807D100F01FF8FFF7F1
:101EDC0068FDBDE81640022001E6614853490068E0
:101EEC004E4CC0F3815003280CBF4FF47A7041F272
:101EFC0088300968B0FBF1F104F15400FEF784FB63
:101F0C0004F15400BDE81640FEF782BB032000909C
:101F1C001C234FF0405200213F4800F0D0BA002063
:101F2C00704770B504463D4E304600F07CFE0025EF
:101F3C0098B9304600F07DFE0646B068204207D0C6
:101F4C003269F3680021204698470546012D05D0DB
:101F5C00304600F070FE0600EFD1284670BD4149B6
:101F6C0001280CBF40F2FF70002008600020704771
:101F7C0070B5FEF739FB294E294D044696F8E00062
:101F8C0028B100F0D0F868B1002086F8E0000220FB
:101F9C00AD68A84706461020FFF7C3FF8EB103209B
:101FAC00A8470EE0214909683220B0FBF1F101B9D4
:101FBC00012106F13000FEF727FB06F13000FEF799
:101FCC0027FB2046BDE87040FEF712BB38B5012850
:101FDC001ED100F091F801281CD000F09AF80F4C9B
:101FEC001249012084F8E00032200968B0FBF1F5B9
:101FFC0005B9012504F13000FFF7EDFA294604F18B
:10200C003000FEF701FB04F13000FEF701FB01E0AC
:10201C0000F0ABF8002032BD00A00C40EC04002016
:10202C0088570000B03F0050621C0020B4570000DD
:10203C00B801001028200860282008402C200940F6
:10204C000C40094000022243242208400040034077
:10205C008001044314100940892A0000592800000B
:10206C00B43F0050000004608F3F00008F3F010020
:10207C008F3F02008F3F0300903F00018F3F010113
:10208C00903F0002903F00038F3F01048F3F0005FB
:10209C008F1208048F3F00048F3F0006513F000051
:1020AC007F3F01003F3F04003F3F02003F3F0100E4
:1020BC007F3F020070B50446E00782B00D46434EE8
:1020CC0005D5A8B200900023012200F011F8A0075A
:1020DC0005D5A8B200900123022200F009F8600790
:1020EC0005D5ADB2009502230C2200F001F873BDAA
:1020FC000021304600F0E3B90146042907BF1D2337
:10210C004FF0C0421C234FF080523048342100F075
:10211C00E9B980B501210320FFF7CCFFFFF7E0FB05
:10212C002B49886001BD80B50120FFF7E5FF012830
:10213C0019D0002301223421244800F0D3F998B19E
:10214C0000F026F8FFF7CCFB21498B680A68C860C1
:10215C00A2EB9202C01A1F4B5843000C086090422D
:10216C0038BF10460860012002BD10B500210320C5
:10217C00FFF7A0FF0120FFF7BFFF08B100F008F840
:10218C00134CFFF7ADFB606000F058FD206110BDF3
:10219C001148006800F066BD10B510490A68104976
:1021AC000968140424161B384443E41004EB22443D
:1021BC00120600FB00F3121609065A43584309167F
:1021CC0004EBA222484302EBA04010BD00A00C403F
:1021DC00141C002040420F0080000010901300508F
:1021EC00A4100050002200F059BD000010B540486A
:1021FC00046814F1010F08BF002400F0D1FD3D4923
:10220C000020086001203C4908603C49086000F04F
:10221C0097FF3B48006820B13A480068204600F020
:10222C001CF83949394A00200860394801686FF3B5
:10223C001B411143016037480168C1F30131012989
:10224C0006D10168344A114041F400320260016049
:10225C00324800680028FBD110BD70B505463048E7
:10226C00012101602F4909680029FBD02E4C2F4A0F
:10227C00C021216053682E499B075DBF13681B0C5E
:10228C0043F0F00372230B70002101639668304613
:10229C0000F090FD3146284600F0BFFD2548816DC9
:1022AC0089B240F20F22914213D201680068C1F347
:1022BC000361C0F3034001B1491E072805D006286D
:1022CC000EBF0720801C00F00F0041EA00101A49D5
:1022DC000870304600F010FE18490968C9680220E1
:1022EC0088474020206001201549086070BD00001F
:1022FC001C130050840460425C600C4008220443B0
:10230C0080012843000120438C2108400000390142
:10231C004820034004000940FFFFFCFC0C0068420D
:10232C00101009409402224300600C40AC3F005056
:10233C0056620840BC12005002600840A001001018
:10234C00940460421B4213D1094236D12AB184460F
:10235C00B0FBF2F002FB10C2704700F061BFFCD37F
:10236C000022002370470B00020000210020704760
:10237C00904271EB030CF6D370B5B1FA81F4B3FA59
:10238C0083F52C1BA340C4F1200532FA05F6334328
:10239C00A2405FF00046E64002E05B085FEA3202D2
:1023AC00841A71EB030524BF204629467641F4D3E9
:1023BC0002000B003000002170BD012ACFD970B58E
:1023CC00140C20D0B1FA81F4B2FA82F5C4F12004D5
:1023DC006419B4F12006D6D3B2405FF00044F44047
:1023EC00002502E052085FEA3303C61A71EB020EB5
:1023FC0024BF3046714664416D41F3D302000B009B
:10240C002000290070BD0C46B1FBF2F102FB114516
:10241C002D0445EA1045B5FBF2F402FB145580B2CD
:10242C0040EA0545B5FBF2F002FB105240EA0440CD
:10243C0070BD000070B504460D46164600F0B6F9A6
:10244C00401E8041C00F1A490A68002AFCD0012E98
:10245C0002D0022E02D003E0257002E0258000E0BD
:10246C00256001220A6000281CBFBDE8704000F006
:10247C00A1B970BD38B504460D4600F097F9401E61
:10248C008041C00F0A490A68002AFCD0012D02D0F5
:10249C00022D02D003E0247802E0248800E02468B6
:1024AC0001220A6008B100F085F9204632BD000017
:1024BC0000800C400B46114604221818BAE710B5E0
:1024CC0000EB4100102B144600F5007002D3103BBA
:1024DC00001D240C0299994041EA0441BDE81040CA
:1024EC000422A7E738B51D460818102D144602D350
:1024FC00103D801C240C0221FFF7BCFF204080B251
:10250C00E84032BD006801074CBF042000F0030016
:10251C00704700001628A8BF203870472DE9F84FE7
:10252C0006469348934C0068934D800704D50820C9
:10253C00A87192482060BFE000F080FB8046904874
:10254C00006800900027001700F101090098800234
:10255C0008D4C8F13E00C0100928A8BF0820814546
:10256C00B8BF814687480068C0F30460FFF7D2FF0C
:10257C00824685480068C0F30440FFF7CBFF09EBA7
:10258C000A011629A8BF152104DA6FF0090291423D
:10259C00B8BF114601F01F027C4B42F4F8521A806E
:1025AC007B4A126812F0030F18BF0127520748BF6D
:1025BC0047F002070EB147F0040795F90720A8EB86
:1025CC000202052A02DAAA7997425DD0A8F10F0C13
:1025DC000026BCF1000FB64607F0010207F0040319
:1025EC00DFF8B09123D40CEB0C1C4FEA2C2EBEF16F
:1025FC00080F28BF4FF0070E7646072E28BF062679
:10260C0009EB860A59F82660DAF804A0AAEB060A48
:10261C000AF0FF0613B1CAF3072B5E445FEA877B0F
:10262C0044BFCAF3074B5E440AB106EB1A6659F86D
:10263C002E9009F0FF0A13B1C9F307239A44BB0784
:10264C0044BFC9F307439A440AB10AEB196A401A0A
:10265C00ACEB0E220099AF71724380320128B8BFE7
:10266C000120342301F0FF0158430AEB12224843A6
:10267C00B0FBF2F0B0F5803F28BF4FF6FF7008F3C7
:10268C000708A88085F8078043480068A988286057
:10269C0000201F2904D21F21A98004E04908401CF6
:1026AC00B1F5007FFAD20F39090940EAC1003B4964
:1026BC000843206000206060BDE8F18F10B53848F9
:1026CC00006884B21CB300F0B9FA2B4991F90720C9
:1026DC00904205DA6FF07F029042B8BF1046C87185
:1026EC008888844201D28C8010BD2B4A12680B68FA
:1026FC00D21A921C202A28BF1F22231A5208D34018
:10270C001818B0F5803F28BF4FF6FF70888010BDB9
:10271C002448026802B9704710B5234B996801F040
:10272C004060B0F1406F21D011480468A4071DD45B
:10273C005C68A4071AD404681B68C3F303531C33E6
:10274C001B0114F0050F06D09A420FD26FF0050151
:10275C002140016010BD934208D20A0158BF44F0D9
:10276C000104490158BF44F00404046010BD00008A
:10277C000000094030100940441C0020FDFDA4005D
:10278C00B43F0050B81200503C1100506E6208402B
:10279C00242208409C1300500820094000E7A48024
:1027AC003410094028500940AC3F0050EFF3108022
:1027BC0072B67047EFF3108062B670470138FDD1E6
:1027CC0070477047DFF800F099C8011010B50C186D
:1027DC00FFF7ECFF401E8041C00FDFF8F0130A68D2
:1027EC00002AFCD0246801220A6008B1FFF7E2FF3E
:1027FC00204610BD38B5DFF8D843DFF8D813207861
:10280C00897B002508430AD0FDF7EEFEA17800294C
:10281C0006BF0121A1700125FDF7EAFE0DB10020D4
:10282C0032BD0220FFF7C5F90E20FFF7D7F9DFF80C
:10283C00A803016809B1012032BDDFF8A0234021B3
:10284C0011600121C1610020607032BD70B5DFF8EC
:10285C008C0382B0002101604821C160DFF8800345
:10286C0000F1D804A17A002968D00129DFF874237B
:10287C0029D110684BF2F5214843050ADFF86803AB
:10288C000068C0F38140012806D100F0D7F9FFF7AA
:10289C0083FC684305EB9055607B10B1002060739E
:1028AC0005E0D2480068000215EB10204508D0481E
:1028BC000560290C416001218160C648807B00289D
:1028CC003AD0052039E0022909D11568284600F0D4
:1028DC00FDF8A5F2FF5003282ED308202DE0032984
:1028EC002CD1116800F1B805A1F5C0612868E96127
:1028FC00002848BF4042002948BF49428842A8BF2F
:10290C00002018DA6868BB4E80B2009008234FF4A0
:10291C007F4230213046FFF7D2FDA86800F072F9F3
:10292C0004213046FFF7CBFDA86900F071F9304661
:10293C00FFF7C5FD012020700B202073BDE873400C
:10294C002DE9F041A64CDFF8AC82AB4FAB4EA3485F
:10295C0004F1E10582B0E9784A1E0B2A00F280806E
:10296C00DFE802F0062233465B33465B3346636E88
:10297C00A34909680968202088470F20F8600723BD
:10298C0041F61D5038614FF4C0720220009000F0E7
:10299C0070F807234FF4C07200214046FFF7A2FDE8
:1029AC0001203060022044E00120F86128780028E2
:1029BC001DBF0020306103200620E8700320386022
:1029CC00002070607068800734D4E878032804D144
:1029DC00022000F04BF8042007E0002000F046F83D
:1029EC00E87806280CBF07200A20E87001201AE0BE
:1029FC00042903D12021B961012105E00122BA612A
:102A0C000A290CBF032102216970002139600821B9
:102A1C00C16001600120386026E005290CBF06204A
:102A2C000920E8700020706004E0002030607060C5
:102A3C000C20E87004F17800BDE8F641FDF7E8BD24
:102A4C00002101600120644908600E20FFF75BF84B
:102A5C000220FFF744F80120E8700020A87003E082
:102A6C00BDE8F341FFF7AEBEBDE8F381009005234E
:102A7C00602200214046FFF722BD000080B5584976
:102A8C005E4891F8E410891E0A291AD8DFE801F093
:102A9C00060A0E190A0E190A0E1912000168890786
:102AAC00FCD510E041688907FCD40CE0416889072B
:102ABC00FCD508E001688907FCD441688907FCD47F
:102ACC0001E0FFF77FFEBDE8014039E7F8B50746A6
:102ADC00484C30212046FFF779FE414E06F1B805EF
:102AEC00C0F30720686004212046FFF76FFEC0F397
:102AFC008440A86020212046FFF768FEC0F38120A7
:102B0C00A861B7F5C060286002D186F8D800F1BD85
:102B1C00296996F8D8202AB96A68A968EA60E86138
:102B2C00AA696A61E86900284CBF6FF001020222B1
:102B3C0000EB40001018421000EB927001EBA0006B
:102B4C006968E960012810DA6A69032A04D1153032
:102B5C0001281DDA01201BE00B300128B8BF012031
:102B6C00491E48BF0021E96007E01F2812DB6A6993
:102B7C002AB915381F28A8BF1E20032109E00B38DD
:102B8C001F28A8BF1E20491C4029A8BF3F21E9606F
:102B9C000021696128610823E86880B200904FF435
:102BAC007F42302100F03CF80120009011234FF4BB
:102BBC00003200F034F8286900F024F800F02FF807
:102BCC00686900F025F800F02BF8F1BD00800C408E
:102BDC00CD0500208857000004800C402C500C4080
:102BEC00EC04002008400C40B43F00501020094079
:102BFC003C600C4000A00C4000400C4034600C4089
:102C0C00A001001080B2009012234FF4F80270471C
:102C1C0080B200900A234FF44062202170470421B7
:102C2C002046FFF74CBC006800280CBF0120002098
:102C3C007047006870470068704700000748084AF2
:102C4C0081681278006852B2A0F54070C9035043F5
:102C5C00C913A1EB20108030001270472850094096
:102C6C000C13005070B50446FFF7A0FD451EAD4196
:102C7C00ED0F074E30680028FCD0A04701203060D3
:102C8C00002D1CBFBDE87040FFF794BD70BD000067
:102C9C0000800C4062F30F2262F31F4200B500BFAC
:102CAC00130096469446103928BFA0E80C50FAD869
:102CBC005FEA417C28BF0CC048BF40F8042BC90711
:102CCC0028BF20F8022B48BF00F8012B00BD0000E4
:102CDC0030480068000C00F00700052828BF4FF0B2
:102CEC00FF3070472C490A68C2F30F324BF69A1327
:102CFC009A424FF0FF3006D10868000F0B280CBF2A
:102D0C000420002070474BF6BE118A4201D10120ED
:102D1C0070474BF641318A4201D1032070474BF684
:102D2C0020318A4208BF0220704700001A48F8B5CB
:102D3C000068050F1948006800F0FF06802E28BFB8
:102D4C000026FFF7CFFF04284FF0FF3406F10A07E7
:102D5C001DD8DFE800F003121A1A1B00012D12D047
:102D6C00032D06D0072D06D0082D08BF06F116043A
:102D7C000DE014240BE0152409E025B1022D08BF49
:102D8C0006F1140403E00A2401E005B93C4660B2E4
:102D9C00F2BD00009412005018130050A010005007
:102DAC0080B5FFF79FFF20B9FFF7C0FF162800DBA7
:102DBC0001BDFEE7DFF8E8130968C1F304611629C9
:102DCC00A8BF203901EB2071491C1629A8BF152179
:102DDC0004DA6FF009029142B8BF114601F01F01ED
:102DEC00DFF8C02341F4F8511180DFF8BC130968F7
:102DFC0089074FBF40F040600021DFF8B02311601D
:102E0C00DFF8AC13C0F3C06282F00102C0F3806043
:102E1C000A6080F001008860704770B5054682B08A
:102E2C00084600F0EEF80246DFF88843182100F05F
:102E3C0060F800F012F980B20090002340F2FF32EB
:102E4C002C212046FFF73BFBDFF86C63F068C0F3E6
:102E5C000D021C2100F04DF8706800F0FC321421BA
:102E6C0000F047F83068DFF85413DFF8546301EAD8
:102E7C000002102100F03DF8284600F0F8F8024658
:102E8C000C2100F036F8284600F01CF9400040F008
:102E9C0020003072284600F01EF940F0100030720D
:102EAC00284600F021F90246282100F022F8284695
:102EBC0000F0FFF8400040F06000F072284600F08F
:102ECC002DF9C00040F080003070284600F02FF93A
:102EDC008000BC4940F47C400880284600F011F981
:102EEC000246082100F005F8B7494FF4800008604D
:102EFC0073BD2046FFF7DEBAF8B5810C01F0030173
:102F0C000129B24CB04D02D002292AD026E0216A08
:102F1C008A0323D44FF480422A606FF08F06AC4AA8
:102F2C00D2F8023033404E0A06F080063343C1F328
:102F3C0003363343C2F80230C1F30326D2F8013012
:102F4C001B0946EA0313C2F801306FF0E706136859
:102F5C00334001F0E7011943116002E04FF00041EA
:102F6C0029609C4E9C4AB16809075CBF4021A9624C
:102F7C004FF400712964800D216AC90C01F0030122
:102F8C0041F0300110F00300117003D0022826D05C
:102F9C0008D326E001210420FFF78CF88F4800F0BD
:102FAC00F0F822E00120FFF7A7F807463946042085
:102FBC00FFF780F80420FFF79FF8B842FAD1366883
:102FCC0026F07F4000F0DDF8854B1B681B684FF046
:102FDC0060220721300E98474FF48060286003214F
:102FEC0000E002210420FFF765F820687D4900F01D
:102FFC003F00087047F618007B4908807B48006842
:10300C00F1BD7B490968C1F383628303C1F38F214E
:10301C0020D4000400164FF6FF7307E0490804D1D2
:10302C001946520804BF01220121401C0028F5D486
:10303C0001280FDB490041F00101B1F5803F21BFB0
:10304C000121520042F00102102A24BF0F2219461E
:10305C00401EEDE741EA0240704765480168006890
:10306C000002C1F3870100F440700843704730B58B
:10307C00604C61490A686568ED07C2F30351C2F3FD
:10308C0003430AD42468250501EB2571240481F33C
:10309C00040103EB247383F304031B0443EA01517F
:1030AC0093B21943222824BF02F080400143084602
:1030BC0030BD0021202803D350480068C0F30151D3
:1030CC00084670470121222803D34D480068C0F3FD
:1030DC000071084670470121222803D34848006834
:1030EC00C0F34071084670470021202807D343489D
:1030FC000068C10C01F44071C0F3845001430846D0
:10310C00704720283F4907D33C483F4A0068810A52
:10311C0002EA003040EA815108467047002122281B
:10312C0003D337480068C0F3C061084670470021DC
:10313C00222803D332480068C0F345510846704733
:10314C00324800680028FBD13148324A4168126885
:10315C008908890041F0005141F00401520748BF31
:10316C0041F001010BD4026812F0030F07D041F0BB
:10317C0003024260026802F00302032AFAD14160A2
:10318C007047254982B20A60C0F3074048600120AD
:10319C008860224800680028FBD0002088607047B7
:1031AC00B81200506E6208400000094094042A4393
:1031BC000000204300A00C4070130050FFFFFC00E7
:1031CC0041A10C40DCA10C4040A00C406C13005001
:1031DC000A600840A83F005008A10C40BD3786008B
:1031EC00B40100100BB00C4070B00C402C20094006
:1031FC0050130050AC3F00507813005098130050FF
:10320C008C13005000803F4000F03F000C006842DF
:10321C0000400340B03F00503C600C4084088C439D
:10322C00704700003C60CF2F9D3F0C030A680C07D1
:10323C0087033F00F0FFFF0000FF000000000000CC
:10324C000000000000000000000000000300070068
:10325C001F3D0000000000040F00000087030B005E
:10326C00F440430000808280700600001E091005A7
:10327C00540005000002103E610000002F003030A9
:10328C007F0200000000000000AA00000000000007
:10329C0000000000000000000000000020724872D6
:1032AC002DA3037305730372047306730472767390
:1032BC007672C0C701800100019010900108019046
:1032CC000C720D720E72C0B00071F0B0C0A018720A
:1032DC003281201052397006200030160111011471
:1032EC00016C79607B60EC60526379607960796025
:1032FC007A6079607B60EC605263796079607960A8
:10330C007A60101220720F73107311738181100088
:10331C00809170B051606F606F6030C0916741C137
:10332C0082C270C42018136F236E11161216816896
:10333C003078B09A4078C09A5078D09A6078E09AF9
:10334C0082C4A0C5201896400312236E12169368EF
:10335C006F606081909440818039702A0110111641
:10336C0032844484F3C0F5C000C2011CBB4000C1D0
:10337C00101CB140B34C131003183018131A101A48
:10338C001239AE68BB60F313BB60F313151000C1A8
:10339C005018151A101A1439B968D8B0007108B140
:1033AC00D8A000B280B403B013B002B012B029722E
:1033BC00D0B0007100B140819092007100B1408199
:1033CC00F022CB44F013031CD740939292940071DB
:1033DC0000B195929494007100B1D0B080A40070AB
:1033EC00D1A030C0609740C08097F1B0C1B00071DF
:1033FC00F1B0C1A0767203A002A000700F7310731D
:10340C0040C0916700C1C091976483B4F3B0C3B05E
:10341C000071C3A0DE646F6006B016B004B014B0C7
:10342C0002B012B000847278200443818339732A6D
:10343C007394F2C132186231211051311200200004
:10344C000094301010160110213130391022174120
:10345C00201250310310803110003016509302129C
:10346C00041273222A413084C097D287821A508466
:10347C00C097D487841A2C61632237414084C0974B
:10348C00D087801A02146084C097D087801A0414E5
:10349C0043614084A1781004C097D287421A60849B
:1034AC00A1781004C097D487441A5231543163392F
:1034BC003306131632383438823182398431420063
:1034CC00729510783090509020784090609005B2B2
:1034DC00E28A038302930CC00BC040818031803997
:1034EC0040394181F3C0310414C0411402C012149C
:1034FC00656922317D8410C00D142D312D14CE8AB6
:10350C008E311E317E39C98A49317939493929318F
:10351C009A1072B04EA06EB011B06CB08A977672E1
:10352C0064B764A762C662974FC0D366B18AF122B2
:10353C008B45D18AF1228B453162007173B060B733
:10354C00B7800722C24560A7B18AF1229C4137227D
:10355C009C4113B1B08030229745AA61E122AF4162
:10356C0090805022AF41F5B0108220228B41899778
:10357C0064B764A7F6B08B618D9764B764A7F6B097
:10358C008B61D08AF022BB413722BB4175B013B19D
:10359C00B0803022B54587B08B61D1221643908024
:1035AC002022164399668B618F97F3C71084803164
:1035BC00803983313000109487B0E3A0F2B0C2A000
:1035CC00F5B0C5A0F1B0C1B0C6A010B113B1B080B8
:1035DC000022D3453022D345007160128097F1B0A0
:1035EC008FB86189708501185195608A718A88A499
:1035FC0087A422C00118211CF34D1214F149F46167
:10360C00011CF441F34D87B4F46188B441B061B04E
:10361C00D08AE022FC4110822022774500714EB006
:10362C006EB0B18001228B4631228B467672F6B099
:10363C007184213160C210148097E0C76097F0C686
:10364C006097F6B0C6B0C1A0B0B7638A748A838A9B
:10365C00948A0071B18001228B4631228B46B08A4C
:10366C00C0222346918901227741C18100C0C091BB
:10367C007084A281276AC19100C3709001B2E0A04E
:10368C00E3A044A00070007173B060B7B78007224C
:10369C00504637226E4660A7B18AE122494290809B
:1036AC0050224942F5B01082202231428D9764B7E6
:1036BC0064A7F6B03162D1221643908020221643C3
:1036CC00996631628F97F2B0C2A0F5B0C5A0F1B087
:1036DC00C1B0C6A010B113B1B08000225846302240
:1036EC005846007160128097F1B08FB8618970856F
:1036FC008031803D01185195608A718A82A1E56103
:10370C008F97F2B0C2A0F5B0C5A0F1B0C1B0C6A001
:10371C0010B113B1B080002276463022764600718B
:10372C0060128097F1B08FB861897085803D011867
:10373C005195808A918A82B1E56173B060A760B7B8
:10374C00B0A772B04EA06EB011B0B08AF022C245D4
:10375C00012250466E62B08AB0229F463B1ED14673
:10376C00A1627B1ED1460BC089B840898031803D57
:10377C001016303D0C14B0800022AD420070B38A9C
:10378C008339F306B18AF0CF010431301C1CC94EC9
:10379C00001210180C1CCB4AB0800022BE420070E4
:1037AC00C2101216323CE18A20831022CD42CF6225
:1037BC000193F2B000701C10BA620C10BA6221189E
:1037CC00C6622114C6621B16C762F6B0F1B010B106
:1037DC0013B1F5B0F2B00C720D720E72E0B0E3B032
:1037EC00B28AF222E442C6B063B7E762D08AF02212
:1037FC00074305B404A428B429A4A0CA8031A1CAE3
:10380C00010051946194D38A8331833910848031BF
:10381C008039833130001094008450315039D38A70
:10382C008339F306F4C134188431343140000094E8
:10383C0089B0E2221143CA8A4A398A392A318A97D5
:10384C00C5B0C6B063B7B28AD2221543C2B00070FD
:10385C000FB2E0A0E3A08E9764B764A7F6B010B1E6
:10386C0013B11082F0221F43F5B0028004A006A011
:10387C0001A00372047250C09167007164B7F6B076
:10388C00C5B00FA20071F5B0C5A0107830900290B1
:10389C0020784090609072B00FA2D3668A9764A78C
:1038AC00F6B084618CB88081A489243984310400F9
:1038BC00849160C091677673767248720672027258
:1038CC000472057306736F600013B0912DB370C052
:1038DC009167F8B0FA640012101A809780C3609751
:1038EC0080C26097C1A0C6B0908000225144548120
:1038FC00041E62438497F6B0528580D0629891671B
:10390C00918911227843828A938A90E06298739805
:10391C0091677E63628A738AA0E06298739891675C
:10392C0090878187011C8E4B0118F11E8C4B81876F
:10393C00F11A81970071F6B0F116819705A200710A
:10394C00F6B0C6A04063509840880022924730B829
:10395C0000700000A96100007F14071353000800D9
:10396C00F1242E1F133FB00A3F0007FF30400040E8
:10397C000140034007400F404F40CF40CF41CF4361
:10398C00CF47CF4FCF3FCF2FCF1FCF0F000000001F
:10399C000F00080000003F00000040003F00000046
:1039AC00040068000E00DC00060043001A0005004D
:1039BC0000000000020000003F00000000000400B6
:1039CC00C00000000400C0000000070050C00091BF
:1039DC00007070C00091007082312100319110B1E3
:1039EC000070018101B100A18231329110B10191BD
:1039FC001110418141224F40F106007051C00191DC
:103A0C0030181039833108D01831416F31003191A1
:103A1C0010B1831414165B680070251050C000910F
:103A2C00F4C3C0C02014036F311041045082F02243
:103A3C007040512622C082312100319110B163397E
:103A4C003110410482C082312100319110B16339AF
:103A5C003110A2C082312100319110B150101531BA
:103A6C000514059200703F6452C03110310661316B
:103A7C00C102426412C13110213971065131E10287
:103A8C00426400708E659D6588C0208250398039F3
:103A9C00001EA34041C001301814181A89C030828E
:103AAC0060398039001EAD4041C001301914191A1B
:103ABC003C64369110B1349110B154B0007154A0E3
:103ACC0064B0F0800022B3404012B09032B0538208
:103ADC005339533989643F6411C122C1426470C1A6
:103AEC00C66811C1C2C0426470C1CB6850C000919D
:103AFC00277298921516141642105310F0C1218299
:103B0C00313131398139313151B070B2766527722A
:103B1C00999270B262107310F0C331822131213945
:103B2C0081391B107665E2C0823160828031803928
:103B3C00020061B00071329110B151A061B02772D6
:103B4C0030C2F76800008012B09032B0007050C0E4
:103B5C0000912772999262107310F0C33182213157
:103B6C002139813951B070B282652772989270B246
:103B7C0042105310F0C12182313131398139313148
:103B8C001A10826551A061B02772B0C01C693F64E5
:103B9C0001C122C1426401C1C2C04264151A3C6415
:103BAC00359110B153828964C012B09032B000705C
:103BBC003F6472C281C0426422C111C1426402C01E
:103BCC0011C1426462C031C3426462C311C1426418
:103BDC0002C311C14264538253398964E2C34764FE
:103BEC001122444142C281C8426452C211C1426492
:103BFC0072C2E1CE426402C281C8426402C201C8F0
:103C0C004264B0C0586900703F6442C201C842644B
:103C1C0052C211C0426472C2E1C0426402C001C10E
:103C2C00426462C001C3426422C101C1426462C3E6
:103C3C0001C1426402C301C14264538289640070B1
:103C4C0061B000711214231C7E4D339110B10070C1
:103C5C00329110B17669007061B000711318321C8A
:103C6C008A49329110B10070339110B182690070A1
:103C7C00C2C047641510C2C01216476441311514F6
:103C8C00C0C0803105145410B07804040070E6C034
:103C9C008631618200CC0104161467106182F0C376
:103CAC00010417140070067305720B720E7250B07B
:103CBC000071818060B050A092804122C945808003
:103CCC00F1C11004301601110114016CDC61DD61CD
:103CDC00DE61DF61E061E161E261E461E661E861BE
:103CEC00EA6139633C639180F2C021042131828006
:103CFC00422A1214321601112114016CF361116263
:103D0C00F9613C63F3611162F9613C63EB61EB6156
:103D1C00EB61EB61EB61EB619864EB61FD64EB6172
:103D2C002E65EB615A65EB61EB611012B0900E726F
:103D3C000673057210123090AD61F0CF3F67D4C19D
:103D4C0003C0C0C35464407850916078109270786E
:103D5C0020928078309290784092A078609250783F
:103D6C00F0913078909110824039F00601101031AA
:103D7C0010140092EB61BCA0E2A054A0F080502281
:103D8C001B46408000222E47136240A02D828D31AD
:103D9C008D391082F1C0100409101A824A391A04A4
:103DAC001082803910040E10AB10BC10C21063646A
:103DBC002972E0CF3F6713B003B0CD6653B050B05B
:103DCC0054B064B013B0AB661082E0223E46B466C9
:103DDC000071418001222E47F08010225146F022C2
:103DEC001B4764B031223E4263B0D3661082E0229E
:103DFC003E4676663E6264B06F818F318F3DD0DF78
:103E0C00FF923F670071418001222E4764B0F08021
:103E1C0050226B4263B01182C1226646D36608679A
:103E2C001182D12258467666586261817281813145
:103E3C00813D8231823DC0EFF19202933F67116266
:103E4C00B081C091D381978290A2D318854EF30B89
:103E5C001316E31CAA4AC391E3813B149662BA1C65
:103E6C009146231E914AE31C914E90B20722914237
:103E7C0090A21B1A9C62E31CAA4AC391E3813B18D3
:103E8C00AB1CA64E9B1CA84ABC1CAA42B2101082AA
:103E9C00D022A342F0801022AA466364AB66AA62C9
:103EAC00AB109A629B109A6200703082F1C01004C1
:103EBC0063B00071AE6ABC10E0B00070B281C29108
:103ECC00D281018212185181121841828131813DB7
:103EDC00121CC44AE2B032B0B0CF3F67F1C7211414
:103EEC00C84E12C86291729131B0E1B000700812E4
:103EFC0006C000C86091709100700182B081C091C1
:103F0C00D0811018518110180614E1804282823140
:103F1C00823D201CE74AE2B02122EB4632B0A0CF12
:103F2C003F672122EB42E2A032B031824139F0C02E
:103F3C000104011EF942181610C01030081C074766
:103F4C006010103C0610F1C76114FD4E16C8669146
:103F5C0071818131813D161C044B769131B006C0C4
:103F6C000812007061818131813D408280390118D5
:103F7C00F11C1A4B0114B080C0221A47BCB033B0EC
:103F8C0090EFF1920F933F67007003A063B064B0A1
:103F9C00EFB05A650071408000222E4764B02E6548
:103FAC00EFA00071408000222E4764B003B03E6247
:103FBC00018262818231823D80EFF19202933F67F0
:103FCC0003A05A65EB61A2806364EB6150B0007191
:103FDC00EB61E092D08200224047C0B20070A0801A
:103FEC00F0225C4330B002C1623101C0A080001EDF
:103FFC005543F0225643D0F560316039566320109A
:10400C00101A136F236E11161216576B00700000E6
:10401C0070B5FDF7F8FA04460026DFF84C540DE0B5
:10402C0024FA06F0C00708D505EB8600406820B1DD
:10403C00026811001CBF31469047761C2868F6B206
:10404C008642EDD370BDDFF824040168DFF820044C
:10405C000160DFF82004FDF7E4BA2DE9F0470E000B
:10406C00F5B2044644BF86F0204686F4C046A8004C
:10407C0000F1804000F5012004EA06030168DFF836
:10408C00F8733B4086EA0102A1431943224004F431
:10409C00E023120EB3F5E02F02F0010202D1CA01A7
:1040AC0005D411E014F4E02F08BF002A0CD001F461
:1040BC00E022B2F5A02F04D0B2F5C02F04D1052216
:1040CC0000E0062262F31241DFF8B0730160386839
:1040DC00E84000F0010805F1804000F50839B00D0A
:1040EC00B8F1000F00F0010A03D1600248BF89F853
:1040FC0000A020020DD5FCF777FA01223968AA40FE
:10410C0033024CBF13460023914319433960FCF72B
:10411C006FFAB8F1000F03D0600248BF89F800A015
:10412C00BDE8F087002948BF0021800000F18040E5
:10413C0000F5012001F03F010268920941EA821169
:10414C000160704710B5DFF83803006800F07F0499
:10415C00FEF7C8FD012804D1FEF7BAFD022808BFFE
:10416C00641C204610BD2DE9F04FA1B00546FDF7AB
:10417C0047FCFEF7B7FD0026012804D1FEF7A8FD89
:10418C00022808BF0126DFF8FC02C168C1F3815187
:10419C0001294FF0010A04D10068000E0AFA00F060
:1041AC000643DFF8E402DFF8C0420078DFF8DC9267
:1041BC00FFF7C8FF206020B10146FF224846FEF7FA
:1041CC0069FD4FF00008002706E00AFA00F001F83C
:1041DC00097040EA08087F1C55F82700C1B2FE2977
:1041EC000AD0FF29F7D02268914203D226FA00F2B6
:1041FC00D207EAD502206FE00920FDF7EFFCC4F8E6
:10420C00805008232422002117A8FCF70DFA8DF802
:10421C0074A017AA012104F1D400FCF709FA0027B5
:10422C00DFF86CA20BE05046FFF717FF4FF0FF31A1
:10423C00F8B2FFF777FF0020CBF804007F1C206852
:10424C00874213D226FA07F0C00704EB870B48BF4E
:10425C000420F1D428FA07F0C00747BF17F809006B
:10426C0055F82010F8B240F4C041DCE708233022A6
:10427C0000210BA8FCF7E0F9DFF81852DFF8182240
:10428C00287813900BAB00200090102104F18400CF
:10429C00FCF7C6F908232822002101A8FCF7D0F965
:1042AC006868DFF8F811079000230020089001AA35
:1042BC0004F1A000FCF7C8F9DFF8E401016821F46F
:1042CC007C5141F4005101600120DFF8D8110860E5
:1042DC00DFF8D4110860002021B0BDE8F08F2DE983
:1042EC00F041614E04460D4606F1D40800F05EF82C
:1042FC00002035B9002020606060A06085B125E009
:10430C00401C15F82010FE29F4D0FF29F8D0326893
:10431C00914204D206EB810149680029F0D00024B7
:10432C004046FCF795F92046BDE8F08106EB81028A
:10433C000123546003FA01F162681143616055F87E
:10434C0020205349204600F067F8384615F8201015
:10435C00FE29E5D0471CFF29E8D1F6E72DE9F0410D
:10436C0005000E46F7B203D03F4C2068874201D3BC
:10437C00022019E004F1D40800F018F804EB8700CF
:10438C00416809B101250BE0456001216868B9401D
:10439C000843686032463E49284600F03DF8002547
:1043AC004046FCF755F92846BDE8F0814FF0FF3147
:1043BC004046FCF751B910B50C46F0B1416821FAF2
:1043CC0004F2D20719D50122A2409143416000208A
:1043DC00254901EB840250602C48225C2C48FF2AB2
:1043EC000EBF44F02041D1F8801051F82210FFF795
:1043FC0034FE4FF0FF31204631E0022010BD2B4936
:10440C00FFE70968C14001F00100704700281ABF9E
:10441C00016000200220704738B5134C25680B460C
:10442C001146CAB2AA4204D204EB820252688242FA
:10443C0001D0022032BD1846FFF70FFE002032BD1E
:10444C000B4610B51146084A1468A34204D202EB7D
:10445C0083025268824201D0022010BD1846FFF739
:10446C0061FE002010BD000030180020E02002404A
:10447C00E0200260D0180020007F077FD02002408F
:10448C0044130050A83F0050621C0020E01B002089
:10449C00007FC767A8570000534000001D40000074
:1044AC00003009400C40094008000940C02002407F
:1044BC00DFF800F0D9C10110DFF800F025B10110D0
:1044CC00DFF800F049C70110DFF800F06DA901100A
:1044DC00DFF800F055C0011080B5002804D0082387
:1044EC003C220021FFF7E4FF01BD80B5A948FFF78E
:1044FC00F3FF4FF48060A74908620220A549886148
:10450C00A548A449C861A548A24908610023A14A4D
:10451C000FF23901A248FFF7CFFF01BD10B504001F
:10452C00A048FFF7D9FF4FF480609E4908629E486F
:10453C009C49C861A4B29B4804610023994A0FF2BC
:10454C00AD019A48FFF7B8FF10BD000010B588B058
:10455C0002A8FCF768FF1E209549C873954894493A
:10456C0048619348007B10F0F00050F00200904935
:10457C0008738F48007B50F080008D490873002031
:10458C008B49886002AB8C4A8C498D48FCF795FDB1
:10459C008C49086000200021CDE900010023002295
:1045AC00894988480068FCF715FEFCF7E9FD040012
:1045BC0086480078002103E07E4AC9B25054491C59
:1045CC00C9B21E29F8DB824804197948846000209E
:1045DC000021CDE9000100230022754979480068CB
:1045EC00FCF7F5FE8007E3D4FEE700002DE9F04769
:1045FC0086B0040041F28835002605275FF00108DB
:10460C00684600F029F900208DF80800002003907E
:10461C0000208DF80000ADB201956946002000F035
:10462C0006F981466946012000F001F98246B9F18C
:10463C00000F02D16748FFF743FFBAF1000F02D118
:10464C006548FFF73DFF484600F00EF9504600F074
:10465C000BF903E0F61B2000FFF736FF5B480078F0
:10466C0000280AD1B6B23100484600F0FAF8B6B2CA
:10467C003100504600F0F5F823E054480078AA28A1
:10468C0009D1B6B23100484600F0EBF80021504693
:10469C0000F0E7F815E04D480078552809D10021C5
:1046AC00484600F0DEF8B6B23100504600F0D9F8BA
:1046BC0007E00021484600F0D4F80021504600F0F5
:1046CC00D0F84FFA88F8B8F1010F0CDBB6B2BFB2D4
:1046DC00B819ADB2A84204DB4FFA88F87FEA080893
:1046EC00B9E7BE19B7E74FFA88F8B8F1000FB2D5A1
:1046FC003800310080B289B28842ABD34FFA88F8C7
:10470C007FEA0808A7E710B50C003448FEF756F806
:10471C002000C0B2FFF773FE00280DD1E4B20D2CBF
:10472C0002D00E2C04D007E0AA202849087003E020
:10473C00552026490870FFE710BD80B5FDF760F9DC
:10474C002748FFF710FD002802D02648FFF7B8FED7
:10475C0000F056F824492548FFF7C1FD24490860AC
:10476C0023480068002802D12248FFF7A9FE2249FD
:10477C001F480068FFF74AFE002802D01F48FFF7C9
:10478C009FFEFFF7B2FE3220FFF7C8FEFFF7A0FE38
:10479C00002002BD481B00200006002040420F00F4
:1047AC00A81A0020841B0020000A0020F81A002000
:1047BC0024030020C01B0020EC0200205C0200201F
:1047CC00E8190020501C00200C0300205F1C002066
:1047DC0080841E00EC56000004570000801A06006E
:1047EC00005500001C57000050020020381C00200F
:1047FC004C1C002064560000134700002C55000090
:10480C0038B5134C206810F1010F0FD10020206037
:10481C00104D05E08968401988472068401C2060CD
:10482C000C212068484341590029F3D131BD084A75
:10483C001268904201D30020704709B90FF2300181
:10484C00044A0C2303FB00200268D26810470000C6
:10485C00FC0500204C5300000FF214011822FDF748
:10486C0065B8026812691047016889690847000039
:10487C000100000040420F00010000000000000099
:10488C00000000000000000050F80C2F40F2011353
:10489C001940FFE722EA0101016070470FF2742111
:1048AC000622FDF733B8F8B50C46DFF844120C229B
:1048BC0002FB00156E682F680CB90FF25824207893
:1048CC0048B9B4F90200312818BF322801D1287A2E
:1048DC0008B10020F2BDFBF787FE217819B97A7870
:1048EC00BB781A4302E02A7AD219527812B1FBF73C
:1048FC007FFEEEE719B901217970B97003E02A7ACD
:10490C00D21901215170FBF773FE20783870B07901
:10491C00FDF764F92146284600F086F82846F2BDDA
:10492C0070B504466568266800F097F8A879FDF71D
:10493C00EAF8FBF759FE317811B97170B17003E0E8
:10494C00227A92190021517064E038B504460FF2B6
:10495C00A8126068006850F80C1F237A0E2505FB1E
:10496C00032240F2011312881A401143016025689A
:10497C00FBF73AFE217A491991F84420002A1CBF12
:10498C00BDE83240FBF734BE012281F84420FBF72E
:10499C002FFEBDE832400220FDF70BB938B50446B6
:1049AC000FF25410217A0E2200F038F8FFF76CFF4A
:1049BC002568FBF719FE217A491991F84420002A41
:1049CC0004BFBDE83240FBF713BE002281F844203F
:1049DC00FBF70EFEBDE832400220FDF780B8F0B5C3
:1049EC00067A44680FF210150068246800780E27C8
:1049FC0007FB0655AD882C19042803D10802000EBC
:104A0C00105189B21951F0BD28233822E7E7302321
:104A1C004022E4E7BDE87040FBF7EABD02FB010071
:104A2C00018860680068704770B542680368126856
:104A3C001B780FF2C40413600E26057AB1F902300C
:104A4C0006FB05442488B4F57F4F0CBF0832121DB9
:104A5C001360BDE87040097935E02DE9F843044650
:104A6C004FF00E0860680FF290090568207A08FB79
:104A7C0000904788868801882846FFF705FF05F1D6
:104A8C000C004E220168BA409143016000200021C5
:104A9C00227A08FB029202EB4102491CD288104395
:104AAC000429F5DB05F118010A6882430A60686283
:104ABC004FF0FF3170198162016300218163016441
:104ACC00BDE8F183000010B54368007A0FF22802AC
:104ADC000E2404FB00200A00008818BF01220146A6
:104AEC001868044B1B68DB68BDE8104018470000D1
:104AFC0018540000C8010010FF0000000000010065
:104B0C0002000400100000FF080004000001000275
:104B1C00000400080000320000000000DFF800F084
:104B2C00F9BF011070472DE9FE438046D8F80850B4
:104B3C00D8F804600F46FBF757FD317819B1FBF735
:104B4C0057FD002056E001213170FBF751FD01A803
:104B5C00FFF7A4FE04208DF8040001A940F61A20EA
:104B6C00ADF8060000208DF808006878FFF79BFE72
:104B7C005FEA00093AD0774C206830B9FE200090EB
:104B8C006946201DFFF7ABFB2060397C7248012978
:104B9C0008BF4FF000402978084370490843009043
:104BAC0000992068FFF7DAFBE8B9387870707968FB
:104BBC007160387A3073F8683061387C3076C6F8BA
:104BCC001C90404600F018F848B9307B3169012838
:104BDC000FD008430DD0404600F044F848B1297876
:104BEC002068FFF7E8FB4846FFF79AFE002030707C
:104BFC0000E04046BDE8FE837CB545686E780C4607
:104C0C006846FFF78BFF2EB1012E07D10198B0FB40
:104C1C00F4F001E000F064F8461E00E02646B6F120
:104C2C00807F1CD2DEB1297B2A69012918BF51EA89
:104C3C0002000FD1304600F034F868610146E86993
:104C4C00FFF7E5FEE8696C60AE603146FFF7DCFE0D
:104C5C00002076BD0229F5D068698642F2D26FF049
:104C6C00020076BD70B545682E7BA8680C462246BE
:104C7C00314600F016F80146B1F1807F02D36FF097
:104C8C00020070BD36B92CB1A868884202D26FF010
:104C9C00030070BD69612C61E869FFF7B8FE002064
:104CAC0070BD7CB505460E4614466846FFF736FFC8
:104CBC0024B9002E14BF012E6C1C0FD016B1012E7E
:104CCC0004D00BE000F00CF8441E07E0A5FB040137
:104CDC004FF0FF320023FDF735FB0446204676BD2E
:104CEC0001981F4AA4FB00010023FDF72BBB10B554
:104CFC0084684068C069FFF751FE21781548006848
:104D0C00BDE810400022FFF79BBB10B544688168DA
:104D1C00E0694068027A0F4809780068FFF790FB59
:104D2C00E069BDE81040FFF710BE10B5446881681B
:104D3C00084809780068FFF73EFBE069FFF7F0FDD3
:104D4C000020E061FBF750FC00212170BDE8104011
:104D5C00FBF74EBC281C002000004080000880A1FE
:104D6C0040420F0010B50024202905D1406811786D
:104D7C00C069FFF7A8FE01E06FF00104204610BDEA
:104D8C0010B5594C4FF48C7258492000FCF7BEFDFD
:104D9C0010BD704756485749002280F86720012201
:104DAC0080F83C205448486054484862704780B5AD
:104DBC00FFF7EFFFFFF7E4FFFFF7ECFF01BD80B556
:104DCC00FFF7F5FF01BD2DE9F0414D484D495FF06E
:104DDC0035080268001D0368001D0468001D056885
:104DEC00001D0668001D0768001DD0F800C0001DDE
:104DFC00D0F800E0001D0A60091D0B60091D0C6055
:104E0C00091D0D60091D0E60091D0F60091DC1F8FB
:104E1C0000C0091DC1F800E0091DB8F10108B8F186
:104E2C00000FD6D10268001D0368001D0468001D28
:104E3C000568001D0668001D0768001DD0F800C03D
:104E4C00001D0A60091D0B60091D0C60091D0D6019
:104E5C00091D0E60091D0F60091DC1F800C0091D58
:104E6C00BDE8F0812DE9F041274828495FF0390869
:104E7C000268001D0368001D0468001D0568001D04
:104E8C000668001D0768001DD0F800C0001DD0F892
:104E9C0000E0001D0A60091D0B60091D0C60091D56
:104EAC000D60091D0E60091D0F60091DC1F800C0C1
:104EBC00091DC1F800E0091DB8F10108B8F1000F97
:104ECC00D6D10268001D0368001D0468001D05682A
:104EDC00001D0A60091D0B60091D0C60091D0D6089
:104EEC00091DBDE8F081000004040021E45000001D
:104EFC003C030021AC0300210D0400214D040021D2
:104F0C006039000000C00021303200000080002118
:104F1C00DFF800F00DC30110DFF800F067BE0110E0
:104F2C00DFF800F081C60110DFF800F095B7011032
:104F3C00DFF800F08DC20110DFF800F03DC2011067
:104F4C00DFF800F009C30110DFF800F045C00110D4
:104F5C00DFF800F0D1C70110DFF800F011C8011024
:104F6C00DFF800F021C801100C381E283ED8DFE80D
:104F7C0000F0103D3D3D3D3D3D3D3D3D153D3D3D34
:104F8C001A3D3D1F243D3D3D3D3D293D3D3D2E33CC
:104F9C003800DFF82801006800687047DFF81C0152
:104FAC00006840687047DFF814010068806870473B
:104FBC00DFF808010068C0687047DFF8000100687E
:104FCC0000697047DFF8F400006840697047DFF84B
:104FDC00EC00006880697047DFF8E0000068C06989
:104FEC007047DFF8D8000068006A704700207047EF
:104FFC0000B589B009216846FFF78AFF09B000BDEA
:10500C0000B581B0FCF72EFBDFF8B400DFF8B4106C
:10501C000068884218BF00F04BF8DFF8AC00B0F520
:10502C00B26F03D001B05DF804EB42E001B000BDFB
:10503C0000B581B0FFF770FFDFF89000C06801B0D9
:10504C005DF804EBFCF758BA00B581B0FCF7ECFB4B
:10505C00012818BFFCF760FA0FF21D00FFF760FF84
:10506C00FFF762FFFFF764FFFFF766FF01B05DF823
:10507C0004EBFFF765BF000000B581B0FBF7B0FA99
:10508C00FCF780FC01B05DF804EB0320FFF75CBF7C
:10509C0010B504460320FFF757FF2046BDE810402B
:1050AC00FFF756BFDFF82810DFF82800886170473B
:1050BC00FEE7FEE7FFF750BFFFF752BFF0010020FD
:1050CC0098CA011070472820900500007801002034
:1050DC00440100200008000075040021F5040021A3
:1050EC00F0B5174C40216118C878022805D0094842
:1050FC000021016008498847F0BD256E074E3560D8
:10510C00600728432066276824600E488047276084
:10511C003560F0BD2C110440A5650000284004400A
:10512C0010B5074CA17D002905D10121A1754802BC
:10513C0004493E3988472068002800D0804710BDBC
:10514C00540200218B390000F8B51A4E0546316B1C
:10515C001948CC09E401002D11D01849097802290D
:10516C000FD0007B044372B60120154F4002B847A4
:10517C00114820380088C109C90704D016E0C07A4C
:10518C00F0E7407BEEE70F493463CC61400AC0077F
:10519C000CD001208003F16A002D01D0014300E006
:1051AC0081430846F1620749403948630020B847FB
:1051BC0062B6F8BD80020021880000219602002111
:1051CC00DF3C0000404004400749002800D0042088
:1051DC00064A72B60978C90701D0105800E0802041
:1051EC0062B640B2704700006B0200215860044068
:1051FC0030BF704738B5FDF7D9FAFDF789FAFCF7DF
:10520C00DCFB044604F00C000C2849D0600721D4C8
:10521C00FCF784F9054601210120FCF7D8FB234952
:10522C00096801FB05F2904214D28220B0FBF1F028
:10523C001F4C291A04F10C00FBF7E6F904F10C00E1
:10524C00FBF7E6F90120FCF721FD04F10C00FCF75B
:10525C00C2F927E0200723D41648FDF753F9042898
:10526C00FAD0E206144900D418B9086840F00100DD
:10527C0002E00868400840000860104C1048114DCE
:10528C00016841F003010160202021688969884789
:10529C0028682068806B804701202860286801E01E
:1052AC00FFF7A6FFBDE83140FDF784BAB457000004
:1052BC00EC040020004003408C210840B801001091
:1052CC00242208402C200940F0B40168446883680B
:1052DC00014401EB5402E40748BF4B44914202D114
:1052EC00F0BC0C30704711F8015B15F0030604BFDD
:1052FC0011F8014BE61C2C090F2C07D111F8014BAE
:10530C000F3403E011F8017B03F8017B761EF9D111
:10531C00002CE3D0AD0811F8016B05F00305032D4B
:10532C0008BF11F8015B06EB05256D42A41C1D445A
:10533C00D4D015F8016B03F8016B641EF9D1CDE7DD
:10534C008456000030160020985700008456000048
:10535C00501600209A57000084560000701600204A
:10536C009C57000084560000901600209E570000A9
:10537C0084560000B0160020A05700008456000090
:10538C00D0160020A257000084560000F016002012
:10539C00A45700008456000010170020A6570000E8
:1053AC0000000000000000000000000000000140B0
:1053BC001FFF0000170000000000014020FF00004C
:1053CC00180000000010014021FF0100190000002E
:1053DC000010014022FF01001A00000000200140D3
:1053EC0023FF02001B0000000020014024FF0200EC
:1053FC001C0000000030014025FF03001D000000D0
:10540C000030014026FF03001E00000000140020A5
:10541C00B85300000000000000140020C45300002A
:10542C000100000048140020D053000000000000D0
:10543C0048140020DC5300000100000090140020F0
:10544C00E85300000000000090140020F45300000A
:10545C0001000000D81400200054000000000000DF
:10546C00D81400200C540000010000007B756E6BFA
:10547C006E6F776E2D696E7374616E63652D6E61E0
:10548C006D657D007B656D7074792D696E737461CB
:10549C006E63652D6E616D657D0000007B737461BC
:1054AC007469632D696E7374616E63652D6E616DC5
:1054BC00657D000019E050F8041BCB0744BFA9F12F
:1054CC0001035918121F0023042A41F8043BF9D296
:1054DC005FEA827C0B4604D54FF0000CA1F800C0AB
:1054EC009B1CD10744BF0021197050F8042B002AD3
:1054FC00E1D1704706088080070880800D2007C026
:10550C000E2007C01400C080024000800300C08041
:10551C0009400080084000800A400080FE00000026
:10552C004572726F72207265676973746572696E09
:10553C006720627574746F6E2063616C6C6261635A
:10554C006B2066756E6374696F6E000010B5074949
:10555C0079441831064C7C44163404E00A68081D62
:10556C00114488470146A142F8D110BD2C0000001F
:10557C00E80000007FC80110C9BC011051B2011035
:10558C0037C20110BDAD0110C1B1011071BA0110CB
:10559C0069BB011021C001101DFFFFFF6416000044
:1055AC00000600200000000021FDFFFFE8030000C2
:1055BC00340000007801002011FDFFFF27040000DB
:1055CC0006000000EC01002001FDFFFF11040000AB
:1055DC0006000000F0010020F1FCFFFFD2030000E8
:1055EC0034000000A4010020E1FCFFFFDC030000FC
:1055FC0018000000C8010020D1FCFFFF5C03000074
:10560C003600000000010020C1FCFFFFDA0300009F
:10561C000C00000000020020B1FCFFFFC4030000DE
:10562C0006000000F8010020A1FCFFFF470300006A
:10563C00420000004401002091FCFFFF9803000091
:10564C0012000000E401002081FCFFFF6C0100004F
:10565C0040030000080200204572726F7220696ED0
:10566C00697469616C697A696E6720627574746FAC
:10567C006E2070696E730A00374D0000714D00008A
:10568C00314B0000334B0000714C0000054C000006
:10569C00174D0000FB4C0000DFF800F059C501105D
:1056AC000548012808BFFFF7ABBC70470348012829
:1056BC0008BFFFF7F1BF70470100000001000000B8
:1056CC0000F00BF8002803D0FFF740FFFFF7EEFFC8
:1056DC000020FFF732F8FFF73BFC01207047000079
:1056EC00426F6172645F50574D3020646964206E64
:1056FC006F74206F70656E00426F6172645F5057FB
:10570C004D3120646964206E6F74206F70656E007B
:10571C004572726F7220776974682050494E5F69C8
:10572C006E69740A0000000000B581B0FFF7B8FF85
:10573C00C046C04601B05DF804EBFFF7C1BF0000E6
:10574C0045F20000C2F20000854645F23570C0F209
:10575C0000008047FEE70000010000000000000090
:10576C0000000000000001000000000045B5011021
:10577C00B150000099A6011019B8011000000000EA
:10578C0001520000691E0000010101000600070122
:10579C00FF02FF03FF04FF05FF06FF07FF000000E9
:1057AC0000000000200000000A000000D4030020CC
:1057BC00F7190000FFFF00001200018301000143F4
:1057CC00C5A70D633D5015B007010044030020C56B
:1057DC00A700016110610810030D2005800E041252
:1057EC00FE0F120304C009CB4D0000714E0000D314
:1057FC004D00012005010C3676A0ABAC011017074B
:10580C001100003840340088601F3F8C6013825DAB
:10581C0040014000F801182D08100B028460003183
:10582C000004C06C0200204351100BA3001000A315
:10583C0084040083058F1C4304101303069865230E
:10584C00060200C3059865E3050200030401023556
:10585C0038100F08047F176384000073843800A38A
:10586C0088F300FF019306388410080141060F00ED
:10587C00000207089015100124938460A3030820EC
:10588C0067880912B201382004181E91D391D312E3
:10589C00163C102104611E439317F43001FF0014D1
:1058AC0013125C1C210452640483400248515A13A5
:1058BC00008018F206801C129C18210452A4045279
:1058CC00AC0412CC2131AB520E7C42041022CC1C05
:1058DC002134420104C70100D443FF150D12F424F6
:1058EC00210452FC0443040404520C045214048397
:1058FC004F153D12050BC3200001436C04131244D9
:10590C00082104524C04525404525C045264045254
:10591C006C04527404527C04830000A86204642555
:10592C001042121CD0030BC201100001D201111243
:10593C00C848210452D00452D80452E0046168F1E2
:10594C00C7016510F3090101E610036B1F0000D9B4
:10595C0004432B1F242D140383010001A10CD0033D
:10596C00C8040020000152E8142002340100200475
:10597C00523C041200011003601C00205404125805
:10598C000422000152480810030000200101057296
:10599C0019103101520001100708020020140400F4
:1059AC00200111C30100012002D4030020042200B5
:1059BC000150026CDC020001500388030020030D2F
:1059CC001003555000009D04F30101000120024416
:1059DC0004002017120001000208020020520001EE
:0C59EC005200011200010002080000003F
:020000040001F9
:10FFA80000008001100082FFFDFF58003AFFBFF3F8
:10FFB800FFFFFFFFFFFFFFFFFFFFFFFFFFFFFFFF49
:10FFC800FFFFFFFFFFFFFFFFFFFFFFFFFFFFFFFF39
:10FFD800FFFFFF00FFFFFFFF00FFFFFFC500C5FF9A
:10FFE800000000FF00000000FFFFFFFFFFFFFFFF12
:08FFF800FFFFFFFFFFFFFFFF09
