:1000000000500020553E000001CA011001CA011035
:1000100001CA011001CA011001CA011001CA011070
:1000200001CA011001CA011001CA011001CA011060
:0C00300001CA011001CA01103FCA0110F2
:100100003C0000000000000000000000340100007E
:1001100000000000000000000100000000000000DE
:1001200000000000000000000000000001000000CE
:0C013000000000000800000000000000BB
:10013C003400000000000000000000006801000016
:10014C0000000000000000000100000000000000A2
:10015C00010000000000000000000000080000008A
:04016C00000000008F
:1001700030000000000000000000000098010000B6
:10018000040000000000000001000000FFFFFFFF6E
:10019000FF00000001000000080000000000000057
:1001A0002C0000000000000000000000C40100005E
:1001B000040000000000000001000000FFFFFFFF3E
:0C01C000FFFFFFFF08000000000000002F
:1001CC0034050000E401000099A1011095A701106D
:1001DC00A5C2011009B2011045B80110A9BC01104B
:0801EC0089BC01103000000085
:1001F40028000000000000000000000014020000BD
:100204000000000000000000FFFFFFFF00000000EE
:080214000800000000000000DA
:10021C00300500003002000069C201106DC10110F0
:10022C001FC2011095BA011009BC0110E9BB0110E5
:04023C002E00000090
:10024000300500005402000075C20110A9B601106B
:100250009DBF011049B60110B9BA011029BC0110A7
:040260002F0000006B
:1002640024000000000000000000000080020000E4
:100274000000000000000000000000000800000072
:040284000000000076
:10028800240000000000000000000000A40200009C
:10029800000000000000000000000000080000004E
:0402A8000000000052
:1002AC00240000000000000000000000C802000054
:1002BC000000000001000000000000000800000029
:0402CC00000000002E
:1002D00000000000500200200400000000000000A8
:1002E000000000002000000070010000300000004D
:1002F0001C0200007002002004000000000000004A
:10030000000000000C000000300400001800000095
:1003100040020000780200200400000000000000FD
:100320000000000024000000480400001800000045
:1003300000000000B80200200400000000000000DF
:100340000000000010000000A00100002C000000D0
:10035000CC010000C00200200400000000000000EA
:1003600000000000200000006402000024000000E3
:10037000FFFFFFFFE002002004000000000000007B
:100380000000000028000000880200002400000097
:10039000FFFFFFFF08030020040000000000000032
:1003A00000000000580000003C0100003400000084
:1003B000FFFFFFFF1003002004000000000000000A
:1003C00000000000100000006004000018000000A1
:1003D000FFFFFFFF180300200400000000000000E2
:1003E000000000001C000000AC020000240000001F
:1003F000FFFFFFFF200300200400000000000000BA
:100400000000000038000000F40100002800000097
:10041000FFFFFFFF88030020040000000000000031
:100420000000000054000000000100003C0000003B
:100430001800000000000000000000004004000060
:080440000800000000000000AC
:100448001800000000000000000000005804000030
:08045800080000000000000094
:100460001800000000000000000000007004000000
:0804700008000000000000007C
:0804780001000000C43E000079
:040484000100000073
:0404880000000E0062
:04048C0000000F005D
:040490003200000036
:040494000100000063
:0404980058020020E6
:04049C00000200005A
:0404A0000000000058
:0404A40001CA011078
:0404A8000000000050
:0404AC00000000004C
:0404B0000800000040
:0404B4000000230021
:0404B800800200209E
:0404BC00010000003B
:0404C000C80200204E
:0404C400080000002C
:0404C8000000000030
:0404CC00000000002C
:0404D0000000000028
:0404D4000000000024
:0404D8000000000020
:0404DC00010000001B
:0404E00028030020CD
:0404E400060000000E
:0404E800010000000F
:0404EC009003002059
:0404F0000000000008
:0404F4000000000004
:0404F80000020000FE
:0404FC0000000000FC
:020502002900CE
:020504000100F4
:020506002500CE
:020508002E00C3
:02050A002F00C0
:02050C003000BD
:02050E000100EA
:0105100001E9
:0805140004000000803E00001D
:08051C000000000000000000D7
:0405240000000100D2
:0405280000000300CC
:04052C0087C401106F
:04053000380500008A
:040534003805000086
:0405380000000000BF
:04053C00900000002B
:040540009000000027
:0405440000000000B3
:04054800C8020020C5
:04054C00F9120000A0
:040550002000000087
:040554006C3E0000F9
:04055800943C0000CF
:04055C000DC30110BA
:04056000AF0C0000DC
:04056400B10C0000D6
:0405680099C801101D
:04056C009BC8011017
:040570000200000085
:04057400761A0000F3
:04057800F83B00004C
:04057C00103C00002F
:04058000E03B00005C
:0205840008006D
:0205860009006A
:02058800010070
:02058A0000006F
:01058C00016D
:040590000000000067
:040594000000000063
:04059800000000005F
:04059C00000000005B
:0405A00073080000DC
:0405A40093080000B8
:0405A80097070000B1
:0405AC00BD08000086
:0405B000DF07000061
:0405B400B507000087
:0405B8001108000026
:0405BC00EF08000044
:0405C00071120000B4
:0405C400A51400007A
:0405C800A914000072
:0405CC000800000023
:0405D0002400000003
:0405D400180000000B
:0405D80028000000F7
:0405DC0020000000FB
:0405E0003C000000DB
:0405E4000C00000007
:0405E80034000000DB
:1005EC00DFF800F021B30110DFF800F0E3BF0110D9
:1005FC00DFF800F095C00110DFF800F00DA8011035
:10060C00DFF800F0BDBE0110DFF800F085C8011066
:10061C00DFF800F079C80110FEE76BE038B5FFF7A2
:10062C00FCFFDFF8F0500446A8680021FFF7E0FF5C
:10063C006969081AA969814238BF002084F31188BE
:10064C0032BD2DE9F041FFF7E8FFDFF8C850044652
:10065C00A8680121FFF7CCFF0121A9830021E983C0
:10066C006E6929682A68871B801A711A884204D21D
:10067C000020A88384F311882BE084F311880024D4
:10068C0006E0A61931460120FFF7B6FF3F1B0446D2
:10069C00A742F6D2FFF7C1FF8046E88B012804D1B0
:1006AC0031460020FFF7A8FF0446A96914F1010F99
:1006BC0008BF084603D0E01B814238BF08468119A9
:1006CC00FFF79EFF012028840020A8832E6088F36A
:1006DC001188BDE8F08100218182DFF83410C068F8
:1006EC004969884204D1DFF854000068FFF77CBFE9
:1006FC0070477047DFF848100968EFF3118081F3F9
:10070C0011887047F6E7DFF83C00806870470000FE
:10071C007801002078010020616280F31188204666
:10072C00704738B504460D46FFF7ECFF616A294364
:10073C00FFF7F2FFBDE83240FFF752BFC03E0000AA
:10074C00B83E0000C801002000F026BCFFF7D2BF65
:10075C00DFF89C11C20744BF01220A60820744BF24
:10076C004FF480720A60400744BF4FF48030086039
:10077C007047DFF88021C30748BF1160830748BF6B
:10078C005160400748BF9160704710B50446002087
:10079C00D4E90A2347F6906100F0AAFC01239942A0
:1007AC0028BF4FF0FF3010BD10B50C4600F018FDFF
:1007BC00011D201AB0F1004F05D8081BB0F1004FF5
:1007CC0038BF8C4200D20C462146BDE810400120B7
:1007DC00CFE72DE9F04180460A46D8E90A01D8E96D
:1007EC000C45A0FB026701FB0277A6196F41340C84
:1007FC00002244EA07414046FFF7D6FFC8E90E67DE
:10080C00BDE8F081F8B50646FFF7A0FF0446DFF817
:10081C00E850DFF8E8700120E861FFF799FFF96A0A
:10082C00096A142088473069B0F5802F34BF042141
:10083C00010C0120FFF79DFF3A681268232100206C
:10084C009047DFF8BC1001200860DFF8BC0001689D
:10085C0021F4E02141F4803101600120286084F30F
:10086C001188F1BD000000F0C5BC10B5DFF8940094
:10087C00446800F006F86069A169BDE810400847BB
:10088C000000012064E7F8B504460D4600F0B2FC08
:10089C00D4E90A6732463B4600F02AFC3DB1A6FB80
:1008AC00002306FB013307FB0033C4E90C23F2BD24
:1008BC0010B5DFF84400DFF86C4000210160012125
:1008CC00C16121602068FFF7DCFFDFF86410096864
:1008DC00096A14208847206810BD00004FF0FF30D3
:1008EC0002BD80B500F086FC000C40EA014002BD60
:1008FC000420094018200940000024438401001002
:10090C0080022443E401002000200940DFF8D815C0
:10091C00096821B10A898242FAD108467047002041
:10092C00704700002C200940DFF8C805C0887047CC
:10093C00B001001000F0B4BD00BF13B5044600F0C8
:10094C00B3FD18B1002000F002F806E008E00090BA
:10095C0001AB22464FF0FF31704700F00DF816BD89
:10096C004FF0FF3016BD00F007F80EBD08B582B091
:10097C000023009302ABF6E777B58DB01C461498B4
:10098C00ADF8180000250F9828B92CE10EAA0DA877
:10099C0000F070F96D1C00F032F9080000F01D81B8
:1009AC002529F3D100F02BF92D2905D10120ADF823
:1009BC00060000F024F902E00020ADF80600302912
:1009CC0004D10120049000F01AF901E000200490F9
:1009DC00002000904FF0FF3002900A202A2918D1F5
:1009EC002168216051F8042B2160009200F0FDF881
:1009FC00009A002A11D50122ADF80620009A524225
:100A0C0000920AE0009A00FB02113039009100F0CC
:100A1C00ECF8A1F130020A2AF4D32E291AD10021C4
:100A2C0000F0F2F82A290F9210D100F0F9F8029197
:100A3C00002944BF0020029000F0E1F80AE0029A7D
:100A4C0000FB0211303900F0DFF80F92A1F13002F7
:100A5C000A2AF4D3049808B1009804906C2918BFA2
:100A6C004C2905D10120ADF8040000F0C8F802E0D3
:100A7C000020ADF8040008A807900CA805900020F1
:100A8C00642918BF692903900DD1BDF818000028FE
:100A9C00FFD000F0BFF86FF009030298049A82426D
:100AAC00B8BF049019E00A2375291FBF10237829B9
:100ABC0008236F2903D1BDF8180038B906E0702956
:100ACC0013D1049320682060016814E000F0A2F8B0
:100ADC00049A02988242B8BF0490049A059800F0D8
:100AEC00A5F807900599081A2FE0632919D12068F9
:100AFC00206001680FE0001D20601023059808227B
:100B0C0000F094F8401E0790402007990870059853
:100B1C000799401A19E0001D206007980170012008
:100B2C0013E0732913D100F07BF8079111B90FF280
:100B3C0010400790079800F0C7FC0390029810F142
:100B4C00010F1ED0039988421BDA039019E00F980D
:100B5C00401E0F900E98022813D3029810F1010F2B
:100B6C0002D00E99884201D30E9800E0401CDFF8A9
:100B7C008863366802906B4622460FA90DA8B047D1
:100B8C00451900980399401A0090BDF8060038B931
:100B9C0002E000F030F86D1C0098401E0090F8D573
:100BAC000398411E039150B10798401C07900EAA60
:100BBC0010F8011D0DA800F05DF86D1CF0E7BDF8F4
:100BCC00060000283FF4E7AE0098401E00903FF569
:100BDC00E2AE00F010F86D1CF6E70D9810B10D990F
:100BEC0000200870284610B070BD0F990F9A097834
:100BFC00521C0F9270470EAA20210DA83AE00F98B4
:100C0C0010F8011B0F90704702910F990F9A0978F9
:100C1C00521C7047206820600168001D20607047DE
:100C2C002068206050F8041B20607047F0B5002449
:100C3C000025002B44BF5B42002902D54942521EBD
:100C4C002D25B1FBF3F60FF2003703FB1611641CD4
:100C5C00795C00F8011D31460029F2D19442BEBFE7
:100C6C00302100F8011D641CF8DB290018BF00F8C6
:100C7C00015DF0BD10B50C46116802290BD3491E5D
:100C8C001160016819B14A1C02600C7010BD00F0B3
:100C9C000BFC00B100E010BD2046BDE8104000F098
:100CAC0001BCFEE7704780B5DFF85002016821B146
:100CBC00DFF84C02006800F023FCFFF70FBE10B504
:100CCC000446DFF83802006880B134B101E000F06E
:100CDC0018F814F8010B0100F9D1DFF8280200888C
:100CEC0000281CBFBDE8104000F02AB810BD854894
:100CFC00008828B181480068002818BF00F020B88F
:100D0C00704738B504467D48056895B1FFF77CFC03
:100D1C007B490A684B68D4544A68521CAA424A6000
:100D2C0003D100224A6001220A81BDE83240FFF75C
:100D3C006FBC31BD7148006800B10120C0B2704772
:100D4C0070B5FFF761FC04466F486D4D0668288945
:100D5C00012806D16949686809682A68091A10448B
:100D6C00B04769682868B047002068602881204631
:100D7C00BDE87040FFF74CBC000010B5044660683D
:100D8C0008B9012010BD0B460146206853A200F0A3
:100D9C00C1F8A1684118A16061680129A4BF081AB3
:100DAC006060002010BD00002DE9F041044688462B
:100DBC00A088164600F022F80746F11B002E01D43D
:100DCC000A2904DB236846A200F083F8C719A0891E
:100DDC0080B1F51BA468002E05D4204600F074FBEE
:100DEC00401D854206DB23460FF27012294600F0A7
:100DFC0070F8C7193846BDE8F08100003EB50D46C5
:100E0C003849098814468142034628BF0FF2541210
:100E1C0010D237490988814207D3FFF777FD214665
:100E2C004268284600F076F83EBD2B49098831B956
:100E3C000FF23C122146284600F06CF83EBD334BB5
:100E4C001B680095002C48BF47F6FF7400210291E7
:100E5C0001946A462E49984702983EBD2DE9F84305
:100E6C00170048BF47F6FF7704468846002674B340
:100E7C002088010004D03A464146FFF7BFFF0646E2
:100E8C00B91B012922DB208820B118A2404600F0B2
:100E9C0041F88619A068C8B1656875B1284600F09C
:100EAC0013FBA7EB0609401D814506DB2B460FF211
:100EBC00D402494600F00DF88619B91B122905DB3E
:100ECC00A3680FF2C80200F004F886193046BDE89A
:100EDC00F28340461EE000008A05000025730000E6
:100EEC0025700000121500001C0500203A2000009F
:100EFC000A150000F0010020D03E0000C83E0000A2
:100F0C0024050020EA110000CC3E0000D43E000075
:100F1C00870D000008B478B504001ABF2668002EAF
:100F2C0000260D4605AB3046FFF720FD854238BF45
:100F3C00681E16B121680144216072BC5DF808FB83
:100F4C00286E756C6C2900003031323334353637ED
:100F5C0038396162636465660000000028272573D8
:100F6C00272900007B6D6F64756C652325647D00FB
:100F7C007B6D6F64756C652D726F70653A25787D2D
:100F8C0000000000222573222C2000006C696E6585
:100F9C002025643A2000000010B54048046814F184
:100FAC00010F08BF002400F017FB3D49002008602A
:100FBC0001203C4908603C49086000F0DDFC3B48DE
:100FCC00006820B13A480068204600F01CF8394906
:100FDC00394A00200860394801686FF31B411143FE
:100FEC00016037480168C1F30131012906D101685C
:100FFC00344A114041F4003202600160324800680A
:10100C000028FBD110BD70B50546304801210160A8
:10101C002F4909680029FBD02E4C2F4AC021216092
:10102C0053682E499B075DBF13681B0C43F0F003FC
:10103C0072230B70002101639668304600F0D6FADB
:10104C003146284600F005FB2548816D89B240F2F7
:10105C000F22914213D201680068C1F30361C0F3FF
:10106C00034001B1491E072805D006280EBF0720F2
:10107C00801C00F00F0041EA00101A49087030463D
:10108C0000F056FB18490968C968022088474020BF
:10109C00206001201549086070BD00001C13005031
:1010AC00840460425C600C400822044380012843A5
:1010BC00000120438C2108400000390148200340E6
:1010CC0004000940FFFFFCFC0C00684210100940B2
:1010DC009402224300600C40AC3F00505662084022
:1010EC00BC12005002600840A00100109404604241
:1010FC001B4213D1094236D12AB18446B0FBF2F01F
:10110C0002FB10C2704700F0A7BCFCD300220023E6
:10111C0070470B000200002100207047904271EBD9
:10112C00030CF6D370B5B1FA81F4B3FA83F52C1B2A
:10113C00A340C4F1200532FA05F63343A2405FF018
:10114C000046E64002E05B085FEA3202841A71EB6B
:10115C00030524BF204629467641F4D302000B0038
:10116C003000002170BD012ACFD970B5140C20D0ED
:10117C00B1FA81F4B2FA82F5C4F120046419B4F125
:10118C002006D6D3B2405FF00044F440002502E0C4
:10119C0052085FEA3303C61A71EB020E24BF3046C5
:1011AC00714664416D41F3D302000B00200029000D
:1011BC0070BD0C46B1FBF2F102FB11452D0445EA62
:1011CC001045B5FBF2F402FB145580B240EA05451C
:1011DC00B5FBF2F002FB105240EA044070BD010076
:1011EC0009480168426803689942FAD1100C40EA38
:1011FC000140704710B5044A136850681468A34244
:10120C001946F9D110BD000008200940DFF800F0A4
:10121C000DC30110DFF800F067BE0110DFF800F01D
:10122C0081C60110DFF800F095B70110DFF800F06F
:10123C008DC20110DFF800F03DC20110DFF800F0A4
:10124C0009C30110DFF800F0D5C00110DFF800F081
:10125C00F5C00110DFF800F045C00110DFF800F018
:10126C00D1C701100C381F283ED8DFE800F0103D24
:10127C003D3D3D3D3D3D3D3D3D153D3D3D1A3D3DDD
:10128C001F243D3D3D3D3D293D3D3D2E3338DFF88E
:10129C001C02006800687047DFF810020068806864
:1012AC007047DFF808020068C0687047DFF8FC017F
:1012BC00006800697047DFF8F40100684069704706
:1012CC00DFF8E801006880697047DFF8E00100682A
:1012DC00C0697047DFF8D4010068006A7047DFF816
:1012EC00CC010068406A70470020704700B58BB095
:1012FC000A216846FFF78AFF0BB000BD00B581B02C
:10130C00FFF722FADFF8A801DFF8A811006888427D
:10131C0018BF00F0BFF8DFF8A001B0F5B26F03D032
:10132C0001B05DF804EBB6E001B000BD2DE9F04171
:10133C0084B01D460B6880461446002226681F7830
:10134C00002003F1010C242FC1F800C038D15F78C4
:10135C000CF101034C2F0B6006D156F8040BAA6854
:10136C004146FFF721FD25E0462F0DD156F8041B11
:10137C000191414656F8040BADF8002002906846E6
:10138C00AA68FFF76BFD15E0532F19D156F8040B23
:10139C00E86126602346288B0090EA69A968D8F892
:1013AC000000FFF7E9FAD8F8001011B10144C8F8B1
:1013BC00001026680021E96001222968091A2960B9
:1013CC00662F08D1298B002911BF361DF11D21F084
:1013DC00070101F108061AB9E9690F700121E960EA
:1013EC00266004B0BDE8F08130B581B004460D46EE
:1013FC0001E02D1A044445B12A462146012000F093
:10140C002CFB012801DB8542F3D201B030BD4FF03B
:10141C00FF309060704700B581B0FFF7FBFEDFF83E
:10142C009C00C06801B05DF804EBFFF7D9B800B5BB
:10143C0081B0FFF779FA012818BFFFF7EDF80FF22A
:10144C001D00FFF7EBFEFFF7EDFEFFF7EFFEFFF7DA
:10145C00F1FE01B05DF804EBFFF7F0BE00B581B012
:10146C00FFF7F0FEFFF7F2FE01B05DF804EB03208E
:10147C00FFF7F0BE10B504460320FFF7EBFE204645
:10148C00BDE81040FFF7EABEDFF83410DFF8340097
:10149C0088617047FEE7FEE7FFF711BCFFF727BC3A
:1014AC00FFF74EBCFFF72DBCFFF744BCF00100204A
:1014BC0098CA011070472820900500007801002080
:1014CC00440100200008000000F10103810704D052
:1014DC0010F8011B89B18107FAD10268B2F1013110
:1014EC00914311F0803F04BF50F8042FF6E710F839
:1014FC00011B11B110F8011BFBE7C01A7047FF7FED
:10150C00002200F0B3BA004030480068000C00F034
:10151C000700052828BF4FF0FF3070472C490A6898
:10152C00C2F30F324BF69A139A424FF0FF3006D1AA
:10153C000868000F0B280CBF0420002070474BF6E6
:10154C00BE118A4201D1012070474BF641318A42CB
:10155C0001D1032070474BF620318A4208BF02208C
:10156C00704700001A48F8B50068050F1948006864
:10157C0000F0FF06802E28BF0026FFF7CFFF0428BF
:10158C004FF0FF3406F10A071DD8DFE800F0031214
:10159C001A1A1B00012D12D0032D06D0072D06D0D0
:1015AC00082D08BF06F116040DE014240BE01524D9
:1015BC0009E025B1022D08BF06F1140403E00A244A
:1015CC0001E005B93C4660B2F2BD00009412005037
:1015DC0018130050A010005080B5FFF79FFF20B9E2
:1015EC00FFF7C0FF162800DB01BDFEE7DFF8E813AC
:1015FC000968C1F304611629A8BF203901EB2071D9
:10160C00491C1629A8BF152104DA6FF00902914272
:10161C00B8BF114601F01F01DFF8C02341F4F851A7
:10162C001180DFF8BC13096889074FBF40F0406098
:10163C000021DFF8B0231160DFF8AC13C0F3C062F7
:10164C0082F00102C0F380600A6080F001008860C3
:10165C00704770B5054682B0084600F0EEF80246B9
:10166C00DFF88843182100F060F800F012F980B21E
:10167C000090002340F2FF322C21204600F06BFA40
:10168C00DFF86C63F068C0F30D021C2100F04DF81C
:10169C00706800F0FC32142100F047F83068DFF875
:1016AC005413DFF8546301EA0002102100F03DF8F6
:1016BC00284600F0F8F802460C2100F036F82846CF
:1016CC0000F01CF9400040F020003072284600F079
:1016DC001EF940F010003072284600F021F9024645
:1016EC00282100F022F8284600F0FFF8400040F0D6
:1016FC006000F072284600F02DF9C00040F0800028
:10170C003070284600F02FF98000BC4940F47C4032
:10171C000880284600F011F90246082100F005F86F
:10172C00B7494FF48000086073BD204600F00EBA34
:10173C00F8B5810C01F003010129B24CB04D02D077
:10174C0002292AD026E0216A8A0323D44FF480424E
:10175C002A606FF08F06AC4AD2F8023033404E0A42
:10176C0006F080063343C1F303363343C2F802302C
:10177C00C1F30326D2F801301B0946EA0313C2F861
:10178C0001306FF0E7061368334001F0E7011943AD
:10179C00116002E04FF0004129609C4E9C4AB168F8
:1017AC0009075CBF4021A9624FF400712964800DC8
:1017BC00216AC90C01F0030141F0300110F0030063
:1017CC00117003D0022826D008D326E00121042072
:1017DC0000F0E4F98F4800F0F0F822E0012000F06E
:1017EC00FFF907463946042000F0D8F9042000F030
:1017FC00F7F9B842FAD1366826F07F4000F0DDF8F0
:10180C00854B1B681B684FF060220721300E9847F0
:10181C004FF480602860032100E00221042000F0D6
:10182C00BDF920687D4900F03F00087047F61800AC
:10183C007B4908807B480068F1BD7B490968C1F38E
:10184C0083628303C1F38F2120D4000400164FF66A
:10185C00FF7307E0490804D11946520804BF01225E
:10186C000121401C0028F5D401280FDB490041F070
:10187C000101B1F5803F21BF0121520042F001026C
:10188C00102A24BF0F221946401EEDE741EA024000
:10189C0070476548016800680002C1F3870100F4D5
:1018AC0040700843704730B5604C61490A68656800
:1018BC00ED07C2F30351C2F303430AD42468250590
:1018CC0001EB2571240481F3040103EB247383F3EE
:1018DC0004031B0443EA015193B21943222824BF89
:1018EC0002F080400143084630BD0021202803D37C
:1018FC0050480068C0F30151084670470121222866
:10190C0003D34D480068C0F30071084670470121AD
:10191C00222803D348480068C0F34071084670473A
:10192C000021202807D343480068C10C01F4407102
:10193C00C0F3845001430846704720283F4907D321
:10194C003C483F4A0068810A02EA003040EA815173
:10195C00084670470021222803D337480068C0F39B
:10196C00C061084670470021222803D33248006822
:10197C00C0F3455108467047324800680028FBD137
:10198C003148324A416812688908890041F0005197
:10199C0041F00401520748BF41F001010BD4026829
:1019AC0012F0030F07D041F003024260026802F00C
:1019BC000302032AFAD141607047254982B20A60BA
:1019CC00C0F3074048600120886022480068002866
:1019DC00FBD0002088607047B81200506E6208403F
:1019EC000000094094042A430000204300A00C404E
:1019FC0070130050FFFFFC0041A10C40DCA10C4017
:101A0C0040A00C406C1300500A600840A83F0050E6
:101A1C0008A10C40BD378600B40100100BB00C407F
:101A2C0070B00C402C20094050130050AC3F0050BB
:101A3C0078130050981300508C13005000803F40D6
:101A4C0000F03F000C00684200400340B03F0050E3
:101A5C003C600C4084088C43704780B5002802D44D
:101A6C0000F034F902BD002002BD0000401810F057
:101A7C00030308D0C91A1FD3DB0748BF00F8012D98
:101A8C0028BF20F8022D130030B414461546103927
:101A9C0028BF20E93C00FAD8490728BF20E90C00F0
:101AAC0048BF40F8042D890028BF20F8022D48BFFC
:101ABC0000F8012D30BC7047C91818BF00F8012D73
:101ACC00CB0728BF00F8012D7047000070B5044605
:101ADC000D46164600F00AF9401E8041C00F1A4907
:101AEC000A68002AFCD0012E02D0022E02D003E09C
:101AFC00257002E0258000E0256001220A600028A4
:101B0C001CBFBDE8704000F0F5B870BD38B5044698
:101B1C000D4600F0EBF8401E8041C00F0A490A68E0
:101B2C00002AFCD0012D02D0022D02D003E0247833
:101B3C0002E0248800E0246801220A6008B100F069
:101B4C00D9F8204632BD000000800C400B461146EF
:101B5C0004221818BAE710B500EB4100102B1446FC
:101B6C0000F5007002D3103B001D240C0299994023
:101B7C0041EA0441BDE810400422A7E738B51D46F0
:101B8C000818102D144602D3103D801C240C022181
:101B9C00FFF7BCFF204080B2E84032BD70B5044670
:101BAC00E00782B00D46434E05D5A8B20090002345
:101BBC00012200F011F8A00705D5A8B2009001236E
:101BCC00022200F009F8600705D5ADB2009502239A
:101BDC000C2200F001F873BD00213046FFF7BBBFAB
:101BEC000146042907BF1D234FF0C0421C234FF0B0
:101BFC00805230483421FFF7C1BF80B5012103204A
:101C0C00FFF7CCFFFFF7ECFA2B49886001BD80B5DC
:101C1C000120FFF7E5FF012819D000230122342110
:101C2C002448FFF7ABFF98B100F026F8FFF7D8FA7D
:101C3C0021498B680A68C860A2EB9202C01A1F4B3C
:101C4C005843000C0860904238BF104608600120D1
:101C5C0002BD10B500210320FFF7A0FF0120FFF704
:101C6C00BFFF08B100F008F8134CFFF7B9FA606039
:101C7C0000F044F8206110BD1148006800F052B823
:101C8C0010B510490A6810490968140424161B3849
:101C9C004443E41004EB2244120600FB00F312163A
:101CAC0009065A435843091604EBA222484302EB97
:101CBC00A04010BD00A00C40F811002040420F00C5
:101CCC008000001090130050A410005080B5002923
:101CDC0001D1002002BD012801D0022802D100F060
:101CEC0039F802BD00F046F802BD0000EFF3108099
:101CFC0072B67047EFF3108062B670470748084A17
:101D0C0081681278006852B2A0F54070C903504344
:101D1C00C913A1EB201080300012704728500940E5
:101D2C000C13005070B50446FFF7E0FF451EAD41A3
:101D3C00ED0F074E30680028FCD0A0470120306022
:101D4C00002D1CBFBDE87040FFF7D4BF70BD000074
:101D5C0000800C4030B583B00C001500012000F061
:101D6C0033F800900194029569460520ABBE281A01
:101D7C0003B030BD10B584B0030014000093019182
:101D8C00029469460520ABBE01221900201AC046F8
:101D9C00C04604B010BD000080B500F033F802005E
:101DAC000023DB431068984204D011000220ABBE24
:101DBC00002010605068984204D0111D0220ABBE68
:101DCC000020506001BD000010B584B0040000F08C
:101DDC0019F8A100421810680021C94388420DD19E
:101DEC0007A00090002C01D1002000E004200190FD
:101DFC000320029069460120ABBE106004B010BDF8
:101E0C003A7474000048704714050020DFF800F0A5
:101E1C0049C10110DFF800F019C20110DFF800F021
:101E2C0085C10110DFF800F079B50110DFF800F082
:101E3C00C1C20110DFF800F0E1B50110DFF800F0CD
:101E4C0049BA0110DFF800F029AF011020B10823C6
:101E5C0024220021FFF7E2BF704780B501200090DB
:101E6C0009234FF400720021DFF86406FFF773FEBC
:101E7C0001BDDFF8600680687047DFF8581640181F
:101E8C0090F8ED0070470022022904D1012806D1F8
:101E9C0040F2EE2203E0012808BF4FF47A7210469C
:101EAC007047DFF8300690F8E61021B1D0F80C013D
:101EBC00010018BF004770472DE9F041DFF8148688
:101ECC0008F1E1058AB0A879002861D10120A87138
:101EDC00DFF80466DFF80476307B68717068C8F848
:101EEC000C0101A8FFF7B2FF00200690ADF814001A
:101EFC00079001AB00220FF2754108F10C00FFF7BF
:101F0C0091FF01AB00220FF2215108F13000FFF7D5
:101F1C0089FF01AB00220FF2594108F15400FFF781
:101F2C0081FFB16801208847DFF8B4050078786834
:101F3C00C0F38154707B20B1032C02D10120287096
:101F4C0003E0032C18BF022C16D1022000F08DF8F0
:101F5C00032CDFF890150CBF4FF47A7042F210701E
:101F6C000968B0FBF1F108F15400FFF75FFF08F1CD
:101F7C005400FEF739FB05E0012C03D100F022FAE6
:101F8C00FFF76BFF386840075CBF002000F06DF86E
:101F9C000AB0BDE8F08110B50446FFF737FFDFF853
:101FAC003415621892F8E8305B1E82F8E830DBB228
:101FBC0023B98A680123A3409A438A6066E02DE91D
:101FCC00F0410546FFF722FF8046DFF80815681838
:101FDC0090F8ED20521E80F8ED20D2B2002A3FD1AD
:101FEC000FF23C50DFF8004500EB85052E786F882A
:101FFC00300615D52168096A384688472168896AF0
:10200C00384688472168096B38468847DFF8DC1466
:10201C0001200860DFF8D80400688007FAD512E0C8
:10202C00700606D501EB87010020D1F80011884716
:10203C0009E021688969384688472168496B384628
:10204C0088470228F9D106F03F003F2818BFFFF758
:10205C00B6FF687800F03F003F2818BFFFF7AFFFCE
:10206C004046BDE8F041FFF7D5BE10B50446FFF77A
:10207C00CDFEDFF860148A680123A3401A438A60FE
:10208C00611891F8E820521C81F8E820BDE8104056
:10209C00FFF7C0BEF8B50646FFF7B8FE0446DFF8FA
:1020AC003454701990F8ED104A1C002980F8ED207A
:1020BC0039D10FF26C4000EB8607387800F03F0006
:1020CC003F2818BFFFF7E6FF787800F03F003F2865
:1020DC0018BFFFF7DFFF7E883878DFF80C74010635
:1020EC000ED53968C969304688473968496A30461F
:1020FC0088473968C96A3046884700F019F812E0F9
:10210C00400606D505EB86010120D1F80011884761
:10211C0009E039684969304688473968496B304667
:10212C0088470128F9D12046BDE8F240FFF772BE7E
:10213C00DFF8B81301200860DFF8B40300688007EB
:10214C00FAD570472DE9F04F002483B04FF0000A08
:10215C000128D04618BF012664D1DFF87893D9F84E
:10216C00DC0001285DD10220C9F8DC00FFF76EF815
:10217C000090012000F031F9060054D1FFF762F80D
:10218C00DFF8741301900C600120FFF729FD012882
:10219C0004D1002000F076F94FF0010ADFF85C134F
:1021AC00DFF850030C6000681120FFF766FE08B1E1
:1021BC004FF001081020FFF760FE08B148F002084C
:1021CC000F20FFF75AFE08B148F004080B20FFF768
:1021DC0054FEDFF8146320B13168096B4FF4806052
:1021EC0088470A20FFF749FE20B13168096B4FF48C
:1021FC0081608847DFF8F412DFF80473DFF804B36A
:10220C000120086048F02000316889698847DFF8B0
:10221C00F8120120086099F80800C00707D50124BE
:10222C0016E0042673E00120C9F8DC006CE0584687
:10223C0000F09CF90546042DF9D0012D04D1326A29
:10224C0052680321584690473868800880003860EF
:10225C00002000F097F9A74800683068806B804731
:10226C0054B9012D04D1326A526801215846904765
:10227C00386840F0030038600120A04908604046EF
:10228C003168496988470B20FFF7F7FD20B13168A9
:10229C00C96A4FF4806088470A20FFF7EEFD20B131
:1022AC003168C96A4FF48160884790490120086001
:1022BC000020954908600320C9F8DC003168496B9F
:1022CC00404688470128F9D1042000F086F88A4955
:1022DC0001200860874800688C4800688006FBD5A0
:1022EC00BAF1000F1CBF012000F0CCF8FFF702FD83
:1022FC00082000F072F806460120C9F8DC000198AD
:10230C00FFF798FD00F00EFA0098FFF797FD3046A6
:10231C00BDE8FE8F30B5002401288BB004D021D34A
:10232C0003281DD018D31DE001A8FFF78FFD694DC0
:10233C0077490694ADF81440079401AB012205F1DE
:10234C007800FFF76FFD00940023724A2C2105F1F1
:10235C009C00FFF777FD05E000F074FA044601E0FD
:10236C0000F016FB20460BB030BD0000704700009B
:10237C0010B582B00420FFF733FC022818BF0328E5
:10238C0007D100F01FF8FFF768FDBDE816400220EA
:10239C0001E66148534900684E4CC0F38150032854
:1023AC000CBF4FF47A7041F288300968B0FBF1F140
:1023BC0004F15400FFF73AFD04F15400BDE8164057
:1023CC00FEF712B9032000901C234FF0405200215D
:1023DC003F48FFF7C0BB0020704770B504463D4E28
:1023EC00304600F048FC002598B9304600F049FC16
:1023FC000646B068204207D03269F36800212046B7
:10240C0098470546012D05D0304600F03CFC0600EF
:10241C00EFD1284670BD414901280CBF40F2FF7036
:10242C00002008600020704770B5FFF7EFFC294EC4
:10243C00294D044696F8E00028B1FFF7E8FB68B197
:10244C00002086F8E0000220AD68A8470646102060
:10245C00FFF7C3FF8EB10320A8470EE0214909689E
:10246C003220B0FBF1F101B9012106F13000FFF788
:10247C00DDFC06F13000FEF7B7F82046BDE87040F1
:10248C00FFF7C8BC38B501281ED1FFF7A9FB0128FE
:10249C001CD0FFF7B2FB0F4C1249012084F8E0006E
:1024AC0032200968B0FBF1F505B9012504F13000C3
:1024BC00FEF711F9294604F13000FFF7B7FC04F1DF
:1024CC003000FEF791F801E0FFF7C3FB002032BDAE
:1024DC0000A00C4000040020903E0000B03F0050D3
:1024EC003A120020BC3E0000B80100102820086001
:1024FC00282008402C2009400C40094000022243AF
:10250C002422084000400340800104431410094079
:10251C00D92A0000A9280000B43F00500000046034
:10252C008F3F00008F3F01008F3F02008F3F030061
:10253C00903F00018F3F0101903F0002903F00034C
:10254C008F3F01048F3F00058F1208048F3F00045A
:10255C008F3F0006513F00007F3F01003F3F0400CA
:10256C003F3F02003F3F01007F3F02000068010730
:10257C004CBF042000F00300704700001628A8BFD1
:10258C00203870472DE9F84F06469348934C006865
:10259C00934D800704D50820A87192482060BFE0B5
:1025AC00FFF7ACFB804690480068009000270017AE
:1025BC0000F101090098800208D4C8F13E00C01057
:1025CC000928A8BF08208145B8BF81468748006804
:1025DC00C0F30460FFF7D2FF824685480068C0F361
:1025EC000440FFF7CBFF09EB0A011629A8BF152100
:1025FC0004DA6FF009029142B8BF114601F01F02D4
:10260C007C4B42F4F8521A807B4A126812F0030F8A
:10261C0018BF0127520748BF47F002070EB147F019
:10262C00040795F90720A8EB0202052A02DAAA7919
:10263C0097425DD0A8F10F0C0026BCF1000FB646F6
:10264C0007F0010207F00403DFF8B09123D40CEB80
:10265C000C1C4FEA2C2EBEF1080F28BF4FF0070EB2
:10266C007646072E28BF062609EB860A59F82660FF
:10267C00DAF804A0AAEB060A0AF0FF0613B1CAF3B3
:10268C00072B5E445FEA877B44BFCAF3074B5E446B
:10269C000AB106EB1A6659F82E9009F0FF0A13B12D
:1026AC00C9F307239A44BB0744BFC9F307439A44B1
:1026BC000AB10AEB196A401AACEB0E220099AF7101
:1026CC00724380320128B8BF0120342301F0FF018E
:1026DC0058430AEB12224843B0FBF2F0B0F5803FAE
:1026EC0028BF4FF6FF7008F30708A88085F807800D
:1026FC0043480068A988286000201F2904D21F21A4
:10270C00A98004E04908401CB1F5007FFAD20F39CA
:10271C00090940EAC1003B49084320600020606081
:10272C00BDE8F18F10B53848006884B21CB3FFF7D0
:10273C00E5FA2B4991F90720904205DA6FF07F02F8
:10274C009042B8BF1046C8718888844201D28C80F0
:10275C0010BD2B4A12680B68D21A921C202A28BF73
:10276C001F22231A5208D3401818B0F5803F28BFF7
:10277C004FF6FF70888010BD2448026802B970477C
:10278C0010B5234B996801F04060B0F1406F21D037
:10279C0011480468A4071DD45C68A4071AD4046803
:1027AC001B68C3F303531C331B0114F0050F06D035
:1027BC009A420FD26FF005012140016010BD934287
:1027CC0008D20A0158BF44F00104490158BF44F033
:1027DC000404046010BD00000000094030100940E2
:1027EC0024120020FDFDA400B43F0050B81200508C
:1027FC003C1100506E620840242208409C1300508B
:10280C000820094000E7A4803410094028500940F2
:10281C00AC3F0050DFF800F099C8011010B50C184F
:10282C00FFF764FA401E8041C00FDFF8F0130A680E
:10283C00002AFCD0246801220A6008B1FFF75AFA7A
:10284C00204610BD38B5DFF8D843DFF8D813207810
:10285C00897B002508430AD0FFF7D8FAA178002914
:10286C0006BF0121A1700125FFF7D4FA0DB100209C
:10287C0032BD0220FFF7F9FB0E20FFF70BFCDFF84F
:10288C00A803016809B1012032BDDFF8A023402163
:10289C0011600121C1610020607032BD70B5DFF89C
:1028AC008C0382B0002101604821C160DFF88003F5
:1028BC0000F1D804A17A002968D00129DFF874232B
:1028CC0029D110684BF2F5214843050ADFF868035B
:1028DC000068C0F38140012806D1FFF70FFAFFF71B
:1028EC00CFF9684305EB9055607B10B10020607305
:1028FC0005E0D2480068000215EB10204508D048CE
:10290C000560290C416001218160C648807B00284C
:10291C003AD0052039E0022909D11568284600F083
:10292C00FDF8A5F2FF5003282ED308202DE0032933
:10293C002CD1116800F1B805A1F5C0612868E961D6
:10294C00002848BF4042002948BF49428842A8BFDE
:10295C00002018DA6868BB4E80B2009008234FF450
:10296C007F4230213046FFF7F6F8A86800F072F984
:10297C0004213046FFF7EFF8A86900F071F93046F2
:10298C00FFF7E9F8012020700B202073BDE873409D
:10299C002DE9F041A64CDFF8AC82AB4FAB4EA3480F
:1029AC0004F1E10582B0E9784A1E0B2A00F280801E
:1029BC00DFE802F0062233465B33465B3346636E38
:1029CC00A34909680968202088470F20F86007236D
:1029DC0041F61D5038614FF4C0720220009000F097
:1029EC0070F807234FF4C07200214046FFF7C6F879
:1029FC0001203060022044E00120F8612878002892
:102A0C001DBF0020306103200620E87003203860D1
:102A1C00002070607068800734D4E878032804D1F3
:102A2C00022000F04BF8042007E0002000F046F8EC
:102A3C00E87806280CBF07200A20E87001201AE06D
:102A4C00042903D12021B961012105E00122BA61D9
:102A5C000A290CBF03210221697000213960082169
:102A6C00C16001600120386026E005290CBF0620FA
:102A7C000920E8700020706004E000203060706075
:102A8C000C20E87004F17800BDE8F641FDF7ACBD10
:102A9C00002101600120644908600E20FFF78FFAC5
:102AAC000220FFF778FA0120E8700020A87003E0FC
:102ABC00BDE8F341FFF7AEBEBDE8F38100900523FE
:102ACC00602200214046FFF746B8000080B5584907
:102ADC005E4891F8E410891E0A291AD8DFE801F043
:102AEC00060A0E190A0E190A0E1912000168890736
:102AFC00FCD510E041688907FCD40CE041688907DB
:102B0C00FCD508E001688907FCD441688907FCD42E
:102B1C0001E0FFF77FFEBDE8014039E7F8B5074655
:102B2C00484C30212046FFF779FE414E06F1B8059E
:102B3C00C0F30720686004212046FFF76FFEC0F346
:102B4C008440A86020212046FFF768FEC0F3812056
:102B5C00A861B7F5C060286002D186F8D800F1BD35
:102B6C00296996F8D8202AB96A68A968EA60E861E8
:102B7C00AA696A61E86900284CBF6FF00102022261
:102B8C0000EB40001018421000EB927001EBA0001B
:102B9C006968E960012810DA6A69032A04D11530E2
:102BAC0001281DDA01201BE00B300128B8BF0120E1
:102BBC00491E48BF0021E96007E01F2812DB6A6943
:102BCC002AB915381F28A8BF1E20032109E00B388D
:102BDC001F28A8BF1E20491C4029A8BF3F21E9601F
:102BEC000021696128610823E86880B200904FF4E5
:102BFC007F42302100F03CF80120009011234FF46B
:102C0C00003200F034F8286900F024F800F02FF8B6
:102C1C00686900F025F800F02BF8F1BD00800C403D
:102C2C00E1040020903E000004800C402C500C402D
:102C3C000004002008400C40B43F00501020094014
:102C4C003C600C4000A00C4000400C4034600C4038
:102C5C00A001001080B2009012234FF4F8027047CC
:102C6C0080B200900A234FF4406220217047042167
:102C7C002046FEF770BF006800280CBF0120002022
:102C8C00704700687047006870470000DFF800F07C
:102C9C00C1C10110DFF800F009B70110DFF800F036
:102CAC003DC10110DFF800F0CDC10110DFF800F0DC
:102CBC0085B00110DFF800F041AC0110DFF800F036
:102CCC00CDA0011070B5FDF71EFD04460026DFF8FF
:102CDC0030540DE024FA06F0C00708D505EB860049
:102CEC00406820B1026811001CBF31469047761C29
:102CFC002868F6B28642EDD370BDDFF8080401688F
:102D0C00DFF804040160DFF80404FDF70ABD2DE9C7
:102D1C00F0470E00F5B2044644BF86F0204686F418
:102D2C00C046A80000F1804000F5012004EA06032B
:102D3C000168DFF8DC733B4086EA0102A1431943CA
:102D4C00224004F4E023120EB3F5E02F02F001024E
:102D5C0002D1CA0105D411E014F4E02F08BF002AF7
:102D6C000CD001F4E022B2F5A02F04D0B2F5C02FA4
:102D7C0004D1052200E0062262F31241DFF89473BD
:102D8C0001603868E84000F0010805F1804000F56A
:102D9C000839B00DB8F1000F00F0010A03D1600240
:102DAC0048BF89F800A020020DD5FFF72FF80122AB
:102DBC003968AA4033024CBF134600239143194390
:102DCC003960FFF727F8B8F1000F03D0600248BF55
:102DDC0089F800A0BDE8F087002948BF00218000D9
:102DEC0000F1804000F5012001F03F0102689209DA
:102DFC0041EA82110160704710B5DFF81C030068CE
:102E0C0000F07F04FEF78AFB012804D1FEF77CFB5F
:102E1C00022808BF641C204610BD2DE9F04FA1B05C
:102E2C000546FFF749F8FEF779FB0026012804D187
:102E3C00FEF76AFB022808BF0126DFF8E002C16832
:102E4C00C1F3815101294FF0010A04D10068000E31
:102E5C000AFA00F00643DFF8C802DFF8A442007853
:102E6C00DFF8C092FFF7C8FF206020B10146FF22B7
:102E7C00484600F067F94FF00008002706E00AFA10
:102E8C0000F001F8097040EA08087F1C55F827008B
:102E9C00C1B2FE290AD0FF29F7D02268914203D291
:102EAC0026FA00F2D207EAD502206FE00920FFF7DC
:102EBC00F1F8C4F8805008232422002117A8FFF74A
:102ECC00E5FE8DF874A017AA012104F1D400FFF7D8
:102EDC00E1FE0027DFF850A20BE05046FFF717FF8A
:102EEC004FF0FF31F8B2FFF777FF0020CBF804006A
:102EFC007F1C2068874213D226FA07F0C00704EB28
:102F0C00870B48BF0420F1D428FA07F0C00747BF4D
:102F1C0017F8090055F82010F8B240F4C041DCE76E
:102F2C000823302200210BA8FFF7B8FEDFF8FC5174
:102F3C00DFF8FC21287813900BAB002000901021B7
:102F4C0004F18400FEF77EFF08232822002101A84B
:102F5C00FFF7A8FE6868DFF8DC110790002300205B
:102F6C00089001AA04F1A000FFF7A0FEDFF8C80149
:102F7C00016821F47C5141F4005101600120DFF81B
:102F8C00BC110860DFF8B8110860002021B0BDE862
:102F9C00F08F2DE9F0415A4E04460D4606F1D40847
:102FAC0000F05EF8002035B9002020606060A06061
:102FBC0085B125E0401C15F82010FE29F4D0FF291E
:102FCC00F8D03268914204D206EB8101496800299D
:102FDC00F0D000244046FFF76DFE2046BDE8F0819E
:102FEC0006EB81020123546003FA01F1626811437C
:102FFC00616055F820204C49204600F05AF83846BC
:10300C0015F82010FE29E5D0471CFF29E8D1F6E77A
:10301C002DE9F04105000E46F7B203D0384C20687C
:10302C00874201D3022019E004F1D40800F018F80B
:10303C0004EB8700416809B101250BE045600121D3
:10304C006868B9400843686032463749284600F042
:10305C0030F800254046FFF72DFE2846BDE8F081EC
:10306C004FF0FF314046FFF729BE10B50C46F0B1CA
:10307C00416821FA04F2D20719D50122A2409143EA
:10308C00416000201E4901EB840250602548225CFF
:10309C002548FF2A0EBF44F02041D1F8801051F88A
:1030AC002210FFF734FE4FF0FF31204624E00220BF
:1030BC0010BD38B5124C25680B461146CAB2AA424F
:1030CC0004D204EB82025268824201D0022032BD4B
:1030DC001846FFF71CFE002032BD0B4610B51146FA
:1030EC00074A1468A34204D202EB8302526882425C
:1030FC0001D0022010BD1846FFF76EFE002010BD57
:10310C00500F0020E0200240E0200260F00F002071
:10311C00007F077FD020024044130050A83F00508E
:10312C003A120020D8110020007FC767B03E000083
:10313C00072D0000D12C0000003009400C40094044
:10314C000800094062F30F2262F31F4200B500BF72
:10315C00130096469446103928BFA0E80C50FAD8B4
:10316C005FEA417C28BF0CC048BF40F8042BC9075C
:10317C0028BF20F8022B48BF00F8012B00BD00002F
:10318C0050F80C2F40F201131940FFE722EA01011D
:10319C00016070470FF27421062200F03BB9F8B5BC
:1031AC000C46DFF844120C2202FB00156E682F68E7
:1031BC000CB90FF25824207848B9B4F90200312820
:1031CC0018BF322801D1287A08B10020F2BDFEF7D1
:1031DC001DFE217819B97A78BB781A4302E02A7A55
:1031EC00D219527812B1FEF715FEEEE719B901218A
:1031FC007970B97003E02A7AD21901215170FEF767
:10320C0009FE20783870B079FEF744FF2146284635
:10321C0000F086F82846F2BD70B50446656826684D
:10322C0000F097F8A879FEF7CAFEFEF7EFFD3178AB
:10323C0011B97170B17003E0227A921900215170AA
:10324C0064E038B504460FF2A8126068006850F8C4
:10325C000C1F237A0E2505FB032240F20113128862
:10326C001A40114301602568FEF7D0FD217A4919F7
:10327C0091F84420002A1CBFBDE83240FEF7CABDBD
:10328C00012281F84420FEF7C5FDBDE83240022042
:10329C00FEF7EBBE38B504460FF25410217A0E221D
:1032AC0000F038F8FFF76CFF2568FEF7AFFD217AC8
:1032BC00491991F84420002A04BFBDE83240FEF7BA
:1032CC00A9BD002281F84420FEF7A4FDBDE83240E0
:1032DC000220FEF760BEF0B5067A44680FF21015B6
:1032EC000068246800780E2707FB0655AD882C195A
:1032FC00042803D10802000E105189B21951F0BDF7
:10330C0028233822E7E730234022E4E7BDE8704069
:10331C00FEF780BD02FB0100018860680068704701
:10332C0070B54268036812681B780FF2C40413600E
:10333C000E26057AB1F9023006FB05442488B4F553
:10334C007F4F0CBF0832121D1360BDE87040097925
:10335C0035E02DE9F84304464FF00E0860680FF293
:10336C0090090568207A08FB0090478886880188B8
:10337C002846FFF705FF05F10C004E220168BA4004
:10338C009143016000200021227A08FB029202EB9B
:10339C004102491CD28810430429F5DB05F11801C0
:1033AC000A6882430A6068624FF0FF3170198162CB
:1033BC000163002181630164BDE8F183000010B555
:1033CC004368007A0FF228020E2404FB00200A0046
:1033DC00008818BF012201461868044B1B68DB6883
:1033EC00BDE8104018470000803B0000C8010010E9
:1033FC00FF0000000000010002000400100000FFAC
:10340C000800040000010002000400080000320063
:10341C000000000062B38B0708D0521E11F8013B6C
:10342C0000F8013B00F024808B07F6D1830740F0B5
:10343C00208000BF103A07D330B4B1E83810103AEE
:10344C00A0E83810F9D230BC530724BFB1E80810FB
:10345C00A0E8081044BF51F8043B40F8043BD207E5
:10346C0024BF31F8022B20F8022B44BF0B780370D9
:10347C007047083A07D3B1E80810083A40F8043B03
:10348C0040F804CBF7D25307E4E70000DFF800F074
:10349C00F9BF011070472DE9FE438046D8F808505B
:1034AC00D8F804600F46FEF7B1FC317819B1FEF77D
:1034BC00B1FC002056E001213170FEF7ABFC01A8F5
:1034CC00FFF768FE04208DF8040001A940F61A20CD
:1034DC00ADF8060000208DF808006878FFF75FFE55
:1034EC005FEA00093AD0774C206830B9FE20009092
:1034FC006946201DFFF74DFD2060397C724801297B
:10350C0008BF4FF0004029780843704908430090E9
:10351C0000992068FFF77CFDE8B9387870707968FD
:10352C007160387A3073F8683061387C3076C6F860
:10353C001C90404600F018F848B9307B31690128DE
:10354C000FD008430DD0404600F044F848B129781C
:10355C002068FFF78AFD4846FFF75EFE00203070BA
:10356C0000E04046BDE8FE837CB545686E780C46AD
:10357C006846FFF78BFF2EB1012E07D10198B0FBE7
:10358C00F4F001E000F064F8461E00E02646B6F1C7
:10359C00807F1CD2DEB1297B2A69012918BF51EA30
:1035AC0002000FD1304600F034F868610146E8693A
:1035BC00FFF7A9FEE8696C60AE603146FFF7A0FE2C
:1035CC00002076BD0229F5D068698642F2D26FF0F0
:1035DC00020076BD70B545682E7BA8680C46224665
:1035EC00314600F016F80146B1F1807F02D36FF03E
:1035FC00020070BD36B92CB1A868884202D26FF0B7
:10360C00030070BD69612C61E869FFF77CFE002046
:10361C0070BD7CB505460E4614466846FFF736FF6E
:10362C0024B9002E14BF012E6C1C0FD016B1012E24
:10363C0004D00BE000F00CF8441E07E0A5FB0401DD
:10364C004FF0FF320023FDF753FD0446204676BDB4
:10365C0001981F4AA4FB00010023FDF749BD10B5DA
:10366C0084684068C069FFF715FE2178154800682A
:10367C00BDE810400022FFF730BD10B544688168EA
:10368C00E0694068027A0F4809780068FFF725FD69
:10369C00E069BDE81040FFF7D4BD10B544688168FF
:1036AC00084809780068FFF7E0FCE069FFF7B4FD13
:1036BC000020E061FEF7AAFB00212170BDE810405C
:1036CC00FEF7A8BB0C12002000004080000880A16F
:1036DC0040420F0010B50024202905D14068117814
:1036EC00C069FFF76CFE01E06FF00104204610BDCD
:1036FC00DFF800F0D9C10110DFF800F049C7011064
:10370C00DFF800F06DA90110DFF800F025B1011011
:10371C00DFF800F055C0011080B5002804D0082354
:10372C003C220021FFF7E4FF01BD70472DE9F04377
:10373C0087B0040041F28835002605275FF00108A8
:10374C00684600F0ADF800208DF8080000200390CA
:10375C0000208DF80000ADB201956946002000F004
:10376C008AF88146B9F1000F02D12F48FFF7C4FF48
:10377C00484600F09DF803E0F61B2000FFF7C0FF61
:10378C00B6B23100484600F090F84FFA88F8B8F11C
:10379C00010F0CDBB6B2BFB2B819ADB2A84204DB54
:1037AC004FFA88F87FEA0808E7E7BE19E5E74FFA11
:1037BC0088F8B8F1000FE0D53800310080B289B23A
:1037CC008842D9D34FFA88F87FEA0808D5E700B5C4
:1037DC008FB0FEF771FB1548FFF71FFB002802D0D6
:1037EC001348FFF789FF00F02FF86846FFF794FFA6
:1037FC004FF4007008900F4807903220049000237B
:10380C006A460D490D48FFF77FFF0C48FFF78DFF07
:10381C000B4908600B4800F05BF8FDF78BF8FFF7DD
:10382C0077FF00200FB000BD0C3E0000683C00008C
:10383C00243E000030090020393700008811002098
:10384C002C120020B43A000038B5134C206810F14B
:10385C00010F0FD100202060104D05E08968401940
:10386C0088472068401C20600C212068484341593F
:10387C000029F3D131BD084A1268904201D30020CF
:10388C00704709B90FF23001044A0C2303FB0020E6
:10389C000268D2681047000010050020483A00006A
:1038AC000FF214011822FFF7C5BD02681269104708
:1038BC0001688969084700000100000040420F00C0
:1038CC0001000000000000000000000000000000EB
:1038DC000FB480B502AF386827F00301091DFDF75E
:1038EC002BF8BDE8804004B07047000030BF704733
:1038FC0038B5FEF7FBF9FEF73FFFFEF7BAFA0446C0
:10390C0004F00C000C2849D0600721D4FCF786FE8B
:10391C00054601210120FEF7B6FA2349096801FB8F
:10392C0005F2904214D28220B0FBF1F01F4C291A00
:10393C0004F10C00FEF77AFA04F10C00FCF754FECB
:10394C000120FEF7FFFB04F10C00FCF7C4FE27E09E
:10395C00200723D41648FEF709FE0428FAD0E20605
:10396C00144900D418B9086840F0010002E0086856
:10397C00400840000860104C1048114D016841F09F
:10398C000301016020202168896988472868206824
:10399C00806B804701202860286801E0FFF7A6FFB4
:1039AC00BDE83140FEF7A6B9BC3E00000004002083
:1039BC00004003408C210840B8010010242208402C
:1039CC002C200940F0B4016844688368014401EB81
:1039DC005402E40748BF4B44914202D1F0BC0C3076
:1039EC00704711F8015B15F0030604BF11F8014B89
:1039FC00E61C2C090F2C07D111F8014B0F3403E0F6
:103A0C0011F8017B03F8017B761EF9D1002CE3D071
:103A1C00AD0811F8016B05F00305032D08BF11F873
:103A2C00015B06EB05256D42A41C1D44D4D015F892
:103A3C00016B03F8016B641EF9D1CDE7A43D0000C6
:103A4C00500E0020A03E0000A43D0000700E00208F
:103A5C00A23E0000A43D0000900E0020A43E0000F9
:103A6C00A43D0000B00E0020A63E0000A43D0000C6
:103A7C00D00E0020A83E0000A43D0000F00E002057
:103A8C00AA3E0000A43D0000100F0020AC3E000038
:103A9C00A43D0000300F0020AE3E000000000000EE
:103AAC0000000000000000005374617274696E67BE
:103ABC0020746865206578616D706C650A53797344
:103ACC0074656D2070726F766964657220697320FD
:103ADC0073657420746F205379734D696E2E204872
:103AEC00616C7420746865207461726765742074ED
:103AFC006F207669657720616E79205379734D69F3
:103B0C006E20636F6E74656E747320696E20524FF5
:103B1C00562E0A00000001401FFF00001700000095
:103B2C000000014020FF00001800000000100140C0
:103B3C0021FF0100190000000010014022FF0100CC
:103B4C001A0000000020014023FF02001B000000AF
:103B5C000020014024FF02001C0000000030014046
:103B6C0025FF03001D0000000030014026FF03006C
:103B7C001E000000300D0020203B00000000000063
:103B8C00300D00202C3B000001000000780D0020BF
:103B9C00383B000000000000780D0020443B000082
:103BAC0001000000C00D0020503B00000000000090
:103BBC00C00D00205C3B000001000000080E00203E
:103BCC00683B000000000000080E0020743B000061
:103BDC00010000007B756E6B6E6F776E2D696E73D6
:103BEC0074616E63652D6E616D657D007B656D70B6
:103BFC0074792D696E7374616E63652D6E616D657C
:103C0C007D0000007B7374617469632D696E73743D
:103C1C00616E63652D6E616D657D000019E050F875
:103C2C00041BCB0744BFA9F101035918121F002331
:103C3C00042A41F8043BF9D25FEA827C0B4604D596
:103C4C004FF0000CA1F800C09B1CD10744BF002111
:103C5C00197050F8042B002AE1D1704706088080B7
:103C6C00070880800D2007C00E2007C01400C080FC
:103C7C00024000800300C0800940008008400080A2
:103C8C000A400080FE0000007FC80110B30C000049
:103C9C00C9BC011051B2011037C20110BDAD0110E9
:103CAC00C1B1011071BA011069BB011021C0011022
:103CBC0010B5074979441831064C7C44163404E09D
:103CCC000A68081D114488470146A142F8D110BD6D
:103CDC0008000000C400000045FFFFFF0C0D0000B1
:103CEC003005002000000000DDFCFFFF1703000082
:103CFC003000000078010020CDFCFFFF59030000CC
:103D0C0006000000EC010020BDFCFFFF3E0300009C
:103D1C0006000000F0010020ADFCFFFFFF020000D8
:103D2C0034000000A40100209DFCFFFF09030000EB
:103D3C0018000000C80100208DFCFFFF8A02000063
:103D4C0036000000000100207DFCFFFF0C0300008A
:103D5C000C000000000200206DFCFFFFF1020000CF
:103D6C0010000000F80100205DFCFFFF7502000050
:103D7C0044000000440100204DFCFFFFC502000080
:103D8C0012000000E40100203DFCFFFF4001000098
:103D9C00F401000008020020A7360000E136000004
:103DAC00A1340000A3340000E1350000753500009B
:103DBC00873600006B360000DFF800F059C50110A3
:103DCC000548012808BFFDF799BA70470348012838
:103DDC0008BFFFF7F1BF70470100000001000000B1
:103DEC0000F00BF8002803D0FFF762FFFFF7EEFF9F
:103DFC000020FFF7ECFCFDF731FA012070470000C2
:103E0C00426F6172645F50574D3020646964206E5C
:103E1C006F74206F70656E004572726F72207769D7
:103E2C0074682050494E5F696E69740A0000000086
:103E3C0000B581B0FFF7C4FFC046C04601B05DF8C5
:103E4C0004EBFFF7CDBF000045F20000C2F200000A
:103E5C00854643F63D60C0F200008047FEE7000057
:103E6C000100010000000000000000000000000044
:103E7C000100000045B501109514000099A6011031
:103E8C0019B8011000000000FD38000021230000CB
:103E9C000101010006000701FF02FF03FF04FF05FB
:103EAC00FF06FF07FF0000000000000020000000DC
:103EBC000A000000E8020020AF1E00008000000095
:103ECC00F5130000391300001B14000012000183CD
:103EDC0001000143C5A70D63231415B00701005859
:103EEC00020020C5A70001611061081250242104B2
:103EFC006126100377080000030D43FF0049127080
:103F0C001C210452780483400250418010010100AE
:103F1C009418F206941C12B018210452B80452C022
:103F2C000412CC21116B50010030057C420410129C
:103F3C00E01C2104439C0104C30100E843FF060D6F
:103F4C0020020803002004521004521804522004CA
:103F5C00522804834F063D12050BC32000014380F9
:103F6C00031312580821045260045268045270045E
:103F7C00527804528004528804529004830000A8A2
:103F8C00620464151043300B1CD0030BC2011000EB
:103F9C0001D2011112DC48210452E40452EC045207
:103FAC00F4046168F1C7016510F3090101E610031F
:103FBC0023240000910443E3232492FF0121121BCC
:103FCC00FF7F1C86112883010001A10CD003DC03A8
:103FDC000020000152FC1420023401002004523C49
:103FEC000412000110033812002030041234042291
:103FFC000001524808700700002001010000401029
:10400C001031015200011007080200202803002083
:10401C000111C301000112E81C210422000150020D
:10402C006CDC02000150039C020020030D10033BCA
:10403C001400008104F30101000120025803002048
:10404C001712000100020802002052000110031C8C
:0E405C00120020000112000100020800000006
:020000040001F9
:10FFA80000008001100082FFFDFF58003AFFBFF3F8
:10FFB800FFFFFFFFFFFFFFFFFFFFFFFFFFFFFFFF49
:10FFC800FFFFFFFFFFFFFFFFFFFFFFFFFFFFFFFF39
:10FFD800FFFFFF00FFFFFFFF00FFFFFFC500C5FF9A
:10FFE800000000FF00000000FFFFFFFFFFFFFFFF12
:08FFF800FFFFFFFFFFFFFFFF09
:0400000500003E5564
:00000001FF
